:400000000010002011000000E10E0000E10E000008B500F07DFF0000F8B572B601225D4B00211A7080225C48D20004F07CF880225A480021D20004F076F80020041C584A32
:40004000FF25875818323E1C111C6300AE433D4001336419D318620001328A18934206D0591E09781D7889190D700233F6E704301828E4D199234B4A1B0413604A494B4A6B
:4000800001241160EE214A4A09021160EE21494A3C2511608021484A49021360474A11608621474AC9051360464A1160464A02211360464A13608022454B92021A60454BB1
:4000C000454A1C6013780B43444913700B78AB43283D2B430B7016211378414D0B4313702123C4213F4A890213603F4A11603F4A3F49136090223F4B1A603F4A3F4B1A60BB
:4001000080233F4A13603F4A11603F4A13603F4B3F4A1C603F4B1A6003223F4B1A603F4A3F4B1A6080222B68D20213432B6001F077FF2A683B4B3C4913402B603B4A3C4B09
:4001400009201A6020223B4B1A603B4B0F3A1A603A4B013A1A603A4B20321A608222394B12061A60384B394A1360394A1360394A394B1A60394A3A4B1A6001F009FF092078
:4001800001F030FF0022374B201C1A6000F008FFF8BDC0461C700F4000300F4000400F40104B00000000014000000330040001400C0001401000014000500F4008500F4032
:4001C00010500F4018500F4020500F4030500F4034500F402000004000700F4001700F4000010B40000004400800044018000440B66D1B00000104400060C0000801044031
:4002000000020440080204401802044000030440820D1B0008030440000404402400000208040440FFFFFBFFE92100000600008004010B40080202400C0202401C020240FA
:400240002002024008010B400E00008000000240400002401700008080000240E2000080040002400C020B4010B5064C2378002B07D1054B002B02D0044800E000BF012309
:40028000237010BD5001002000000000604A000008B5084B002B03D00748084900E000BF07480368002B00D108BD064B002BFBD09847F9E700000000604A000054010020D6
:4002C000C8000020000000000A234206520F5A4305331840101870470A2243045B0F53430005000F18187047FA2108B50248890000F0D0FC08BDC046FD02000008B50A21AD
:40030000054800F0C7FC00F0B9FB044800F0D6FB00F01EFC08BDC046A1030000944A000037B56B469C1D002369462370174BCD1D5A68002A1DD05868A02102F0F3FAC0B203
:4003400020702378642B01D9642323702078C0B203F028FB0E4A0F4B02F0DAFC021C0B1C00200D4902F06EFF02F07EFCC0B2287001E044232B702878C0B201F0DBFFFA21CA
:400380000648C90000F086FC37BDC046F4020020C3F5285C8FC2E53F000051402103000037B56B469C1D45207F21221C00F0FEF9002803D10E4800F081FB17E001AD4520F6
:4003C0007E212A1C00F0F2F90028F3D02A88094B9A420BD12288084B9A4207D1074800F06DFB074800F06AFB00F0B2FB37BDC0469D4A00004954000001300000A94A000059
:40040000B24A000038B5174C237A002B10D100F08BFA051E144805D0FA21890000F03AFC012316E09621490000F034FC257217E0237A012B14D100F0F2F90B4D00280AD089
:400440000A4800F089FAFA21281CC90000F022FC0023237204E0C821281C890000F01AFC38BDC046F402002005040000F802002008B50B4B1B7CDBB2002B07D0012B0DD1B2
:40048000084800F0F3FB0848FA2105E0074800F0EDFBFA210448890000F0FCFB08BDC046F4020020150600007104000005050000F0B587B0061C01F06FFA0A220F4D2860DD
:4004C0002B6828689C02A40F54431B031B0FE418FFF702FF071C2868FFF7F6FE03AD00903B1C281C0649221C03F090FE0023EA5CF2540133092BFAD107B0F0BDAC0200201C
:40050000C44A00001FB501A8FFF7D2FF034B01A8198889B200F034FB05B000BDF2020020002370B5384E8AB0049305930693F368051C012B50D1301C01F0C2F801F02CFA4A
:400540003668324C2060301CFFF7C6FE0A22B3029B0F5A43111C33031A0F05908B18301C0693FFF7B1FE061C2068FFF7ADFE86420BD2059B3B36002B02D0059B013B03E0A6
:40058000069B013B06933B2305932068FFF79CFE361A0496059E2068FFF79EFE86420AD2069B013B0693059E2068FFF795FE3B36301A059005E0059E2068FFF78DFE361A11
:4005C0000596069923681A03120F8A1A0A219B029B0F4B43D31A0693069A059B049907AC0091201C0A4903F011FE00230393039B082B06D8039B039AA25CEA54039B01336B
:40060000F4E70AB070BDC04660030020AC020020C44A000030B53C4C9BB0211C0D220BA803F078FD392000210722684403F07BFD211C0A22143110A803F06CFD4A2000214D
:400640000A22684403F06FFD002315AC2F49032201A8237003F05EFD2D4B2E49092208A8029303F057FD2C49062203A803F052FD05A8FFF755FF082205A9201C03F0F5FD18
:400680002649201C03F0E4FD05A8FFF711FF201C05A903F0DDFD224B987B1D1CC0B204280DD802F035F903060C090C000BA802A907E00BA801A904E00BA808A901E00BA84D
:4006C00003A903F0C5FDEB7BDBB2002B04D0012B05D110A801A904E010A802A901E010A803A903F0B5FD201C00F0E8F90D4800F0E5F90BA800F0E2F910A800F0DFF900F0F4
:4007000027FA1BB030BDC0466C4A0000D94A00004F464600DC4A0000A34A0000D64A0000F4020020D802002008B562B601F024FF01F0F2FD00F050FC00F080FE01F002FC81
:40074000FA210120890000F0B5FF00F0E3FA0A4800F08CFA00F092F9084800F087FA0848084900F097FAFA210022074B0748C9001A7400F08FFA08BD21030000E90200009B
:400780000504000014050000F40200207104000008B5FFF7C9FF00F04FFA034A138801339BB21380F7E7C046F2020020F0B585B002ABDD1C061C0F1C002301922B70002C9A
:4007C0000DD02B78092B08D8301C002100F078FC2B78C4B20133DBB2F0E700201DE0381C00F008FD301C012100F0C8FDC0B20028F3D1201C00F03CFD03ACC0B220700120C5
:4008000000F036FDC0B26070237862781B021343019A138000F0B0FC012005B0F0BD13B56B469C1D45200121221CFFF7BFFF002801D02088C00B16BDF0B585B002AB9C1CF5
:400840000123237002ABDD1C071C0E1C002301922B702378002B0CD02B78092B09D8381C002100F02DFCC0B220702B780133DBB2EEE7019B03AD1B88301C1A0ADBB22A70D4
:400880006B7000F0B7FC2878C0B200F0B3FC6878C0B200F0AFFC00F06FFCC0B22070207843425841C0B205B0F0BD73B5041CFFF7B6FF051E012D34D16B469E1D4520291CD6
:4008C000321CFFF773FF00282BD045200021321CFFF76CFF002824D0308803051B0D000B0B281CD802F014F806080A0C0E101B121416181A9B0912E05B0910E01B090EE0EF
:40090000DB080CE09B080AE05B0808E05B0006E09B0004E0DB0002E01B0100E05B01236000E00025281C76BD13B56B469C1D45200121221CFFF73AFF00280CD080222388C5
:400940009200134345200121221C2380FFF774FF431E9841C0B216BDF0B5002795B002AB0DAEDC1C019035490D2205AD301C2770AF7303F0CFFB392002ABC018391C0C22BB
:4009800003F0D1FB09AF2E49032203A803F0C2FB381C2C490F2203F0BDFB04A8FFF785FF00283AD0019B049A1A60101C00F0E4F900F0DEF90378002B0BD023782278DBB215
:4009C000825CEA5423780133DBB223702378C35CF1E723702378DBB2EB5CDBB2202B03D123780133DBB2F4E7217807226918301C03F03BFC301C03A9032203F036FC002357
:400A000023702378182B16D823782278B15C0E4AD15423780133DBB2F2E720702378182B09D823782278B95C074AD15423780133DBB22370F2E7044815B0F0BDE54A00009F
:400A4000FE4A0000014B0000D8020020002110B50022142320244B4306489B1801321C54142AF6D101310429F2D10022024B1A7010BDC0460D030020A802002008B5002069
:400A800001F0FEFC002001F0FBFC022001F0F8FC2A2001F0F5FC082001F0F2FC012001F0EFFC022001F0ECFC062001F0E9FCFFF7CDFF0C2001F0E4FC08BD0000F0B5224B7F
:400AC00001781D780022EDB2042D2BD1002320241E4AD4540133142BF9D10125002414231E1C6E436F1E7B433619965D1B19F6B20134D654142CF2D10135042DEED1002346
:400B00002025D4183C3401332570142BF8D100235C1CE4B2002915D0D3183C331970015D231CF5E7541CE4B2002907D014266E43B218064E9155015D221CF3E71A78013278
:400B4000D2B21A70F0BDC046A80200200D03002038B50024E0B2002101F09EFC002514236343064A5B19985C0135C0B201F084FC142DF4D10134042CECD138BD0D0300204B
:400B8000F0B5071C0D1C037885B00193019B03AC002B06D023780133DBB223702378FB5CF3E713222378281CD31ADBB2237003F0C3FA03F0EFFA2178C9B202F029F802AB78
:400BC0005E1DC9B26808317003F0B6FA03F0E2FA052102F01DF81322C9B202AB997123780120D31ADBB2237001F04AFC02AB98793178C0B2C9B201F04FFC02ABDD1D6B4600
:400C00001B792B702A7823789A4212D22B78F85C01F032FC33780133DBB2337002AB98793178C0B2C9B201F037FC2B780133DBB2E7E705B0F0BD704738B572B6094B0A4CE1
:400C400018680022A04201D162B60AE0111C013295005D5989005D500A2AF7D19C6262B6804738BD6C010020370C000030B572B60023064A99008D58054CA54203D0013360
:400C80000B2BF6D100E0885062B630BD6C010020370C000070B572B600230F4CDA00A218161CD26A2C36251C824201D171600DE00133152BF1D10023DA00AA18141CD66A81
:400CC000064A2C34964203D12060616062B602E00133152BF0D170BD6C010020370C000010B50024094A0A4BA10001348B50101C191C0B2CF6D10023DA008218141CD16290
:400D0000002201332263152BF6D110BD6C010020370C000008B5FFF7E3FF024801F0DEFB08BDC046650D000070B500250B4CEB00E418231CE26A0A4E2C33B2420AD05A68F4
:400D4000012A03D05A68013A5A6003E0E06AFFF78DFFE6620135152DE8D170BD6C010020370C000008B5FFF7DFFF00F00DFF08BD0048704740020020002330B5494A904279
:400D800004D9494A0133DBB28018F7E7002B03D03033DAB2302401E02024221C0021434B1A70434A904204D9424A0131C9B28018F7E7251C002902D030253031CCB2002232
:400DC0005C703D49884204D93C490132D2B24018F7E72C1C002A02D030243032D5B200219D70374A904204D9364A0131C9B28018F7E7251C002902D030253031CCB2002274
:400E0000DC703149884204D930490132D2B24018F7E72C1C002A02D030243032D5B200211D712B4A904204D92A4A0131C9B28018F7E7251C002902D030253031CCB2002262
:400E40005C712549884204D924490132D2B24018F7E72C1C002A02D030243032D5B200219D71632803D90131C9B26438F9E7251C002902D030253031CCB20022DC710928E6
:400E800003D90132D2B20A38F9E7002A01D03032D5B20A221A7300223030C0B21D7258729A7230BDFFC99A3B003665C440020020FFE0F505001F0AFA7F969800806967FF44
:400EC0003F420F00C0BDF0FF9F8601006079FEFF0F270000F0D8FFFFE703000018FCFFFFFEE7000008B5031C0749084A0868C3189A1A802A01DC0B6005E003F0DFF80C23D0
:400F000003600120404208BDCC000020D803002070B51049104B01394A1C15D000221E685C689D68A018AA4203D0B058A0500432F8E7021CDC68151AA54202D0002520C25B
:400F4000F9E710330139E7E703F0BEF8FFF720FCFEE7C04601000000F04C000008B500239A000B49032B01D80A4989580A4801338150302BF4D1FFF74FF80022074B012110
:400F80001A608022D20513680B43136008BDC046E10E00000000000000000020C0000020054A1368002803D0802109060B4301E05B005B081360704780031A408021054AEF
:400FC00008B5136809060B4313600A2001F00AF808BDC0460000064010B5054C2378002B03D100F007F801232370FFF7E7FF10BD500200200C2110B500241C4A0A20136829
:401000000B4313601A4B1B4A1C601B4B1A601B4B1B4A13601B4A14601B4A14601B4A13601B4B1C6000F0E8FF0A20032100F0BCFF18490A2000F0ACFF1422174BFF321C60E4
:40104000164B1C60164B1C60164B1A60164B043A1C60164BFF3A1C60154B1A70154B1C80154B1C60154B1C6010BDC046700006400000064077080080600006400701008010
:40108000000306400403064010030640000206400402064095250000C80E0640880E0640480F0640080F0640C80F0640880F06407003002080030020900300207803002083
:4010C000F8B5264C04222378102B44D10125244B92181B682B423ED1071C0A200E1C00F08BFFFF2378001840002E02D1DB3B237002E025232843237002221A4B1A49186069
:401100001A4B0B601A4B1A6008260B68FF36164D3342F9D004232A6813400DD10222286810420BD128680E32013322701A1C184204D18022520001E00022131C0E60002B03
:4011400009D080200B4900060B685B005B080B600B6803430B60101CF8BDC046700300206400064040020640000F0640170300006800064000000640202210B5184B04203F
:4011800019781C1C11422AD0164B19681823114200D1083B144A13601221144AFF3113680B42F9D01368DB0606D401231068184204D18020400003E0002000E0181C031C5B
:4011C000116010222270002B09D08021084A090613685B005B08136013680B43136010BD700300206400064068000640000F06400000064030B51A49021C0B7804209B06CB
:401200002DD5184B1A600824174AFF3413682342F9D004231068034004D0602300200B70031C0FE002201568054202D060250D7008E01020012315680870181C1D4201D134
:40124000802040001460002B09D08021074A090613685B005B08136013680B43136030BD7003002040020640000F06400000064010B5184B1A78191C930626D5164B1A6824
:40128000520705D4154A14680222FF321442F5D004221B6813420BD0114B0F4C1B682260002802D10F490A6011E060220A700EE080210D4A094B09061A600C4A13685B0083
:4012C0005B08136013680B43136001235B42181C10BDC04670030020C00F0640000F0640400306406800064017030000000006401E4B70B51E6800F02FFE0028FBD000203C
:4013000000F032FE0F221A4C1A4D2368934323602B685B005B082B60B3060FD5002000F023FE0A2000F072FE012000F01DFE00F027FE0028FBD00A2000F068FE002000F0B3
:4013400013FE0A2000F062FE012080220A4B120618602B6813430F222B6023689343013A1343236000F000FE70BDC0466400064010000140000006406800064070B5234C7C
:40138000042223789B063ED5FF2540000540002902D12423237003E025232370243B1D431B4E1C4B3360FFF7A3FF311C1A4B1B68DB07FBD4194B1D6008260B68FF36144DC3
:4013C0003342F9D004232A6813400DD10222286810420BD128680E32013322701A1C184204D18022520001E00022131C0E60002B09D080200A4900060B685B005B080B60BB
:401400000B6803430B60101C70BDC04670030020000F0640170300006800064040020640000006408021044A08B5136809060B43136000F059F808BD0000074010B5054C51
:401440002378002B03D100F007F801232370FFF7E9FF10BD58020020124A134B10B51A60002301210724114A11481360114A1160114A0260114804601148036011480160BB
:4014800011490A60114A1360114A1360114A1360114A1360114A1360114A1360114A136010BDC0460A0000020000074040000740000307404800074007000080040307406B
:4014C00010030740440007400002074004020740880E0740C80E0740480F0740080F0740C80F0740880F0740044A054B11680B40902109040B4313607047C04600000140A0
:40150000FFFF0FFF10B5041C830705D1642101F08FFA0120002906D1C821201C490001F087FA4842484110BD0A2243045B0F53430005000F181870470A2283029B0F53431B
:401540000003000F181870470A2283029B0F53430003000F181870470A22C300DB0F53430001000F18187047FA2183049B0F8900594310B50C1C64210F2203051B0F4B434E
:401580000240E3189A180A230006000F5843101810BDF8B50C1C061C081CFA21890001F047FA0F1C081C642101F042FA0D1CFA21201C890001F0B6F964210403381C01F0FE
:4015C000B1F9B60BB6033443000204430A21281C01F02EFA281C0C430A2101F0A3F900012043F8BDF7B50F1CFA21061C8900101C151C01F01DFA0C1C081C642101F018FA45
:40160000381C00910A2101F013FA381C0B040A21019301F087F9019B07050A21301C1F4301F080F9000707430A21301C01F000FA09060F43FA21281C890001F073F90003C2
:4016400007436421201C01F06DF9000207430A21009801F0EDF900980F430A2101F062F900013843FEBD70B50C1C151C022901D80C34013DC821AB082E184900281CF6180D
:4016800001F050F964213618281C01F04BF90623584335181A2001340A21604301F042F90721281801F0C4F9002900D10731081C70BD0000014B03C37047C0466002002040
:4016C000021C10B5024B13CB13C21B68136010BD9C030020F0B585B0061C0C1CFFF744FF00220023051C00920193324FAF4210D2381CFFF707FF002801D02F4A00E02F4A2D
:4017000000230098019980185941013700900191ECE7301CFFF720FF294A431E5B009F5A022805D9281CFFF7EDFE431E98413F180023244D301C6F4303930297FFF704FFF4
:401740004543214B201CEE18FFF7F6FE039F051C230204D5630202D50B2800D80C35201CFFF7E2FE0F220A23224061060024490F59438B180099019AC9186241131C0A1CFF
:4017800084460298039912184B41E12109016943B6185F4160460A1C3C21231C414392197B410E1C271C92197B41101C191C05B0F0BDC046B20700000085E2018033E101A7
:4017C000004C00008051010080AEFEFF064B10B51B18DC7D022805D1081CFFF793FE431E98412418201C10BD004C0000F0B5161C634A89B01F1C634B0690019200251C1C5C
:40180000AF420DD0019B361BAF410133181C0193FFF778FE002801D15A4BEFE75A4BEDE79E42EFD80123594D0493002302950393574DBB420CD0029B039CF61AA741049BFF
:4018400001990133181C0493FFF7C0FF4543ECE7029BB342EFD9301C391C4D4A002301F0E3F9291C039B41431C1C8E425C4165420D402A1C039BB61A9F41E122431C0793AD
:40188000301C0023391C120101F0CEF90023E121041C02930E9B09016143002B0ED0002F02D13C4B9E4205D9012302930C2C05D90C3C03E0002C01D102940C3400230A1C01
:4018C000BB4207D11D1C96425D41181C694211400A1C031CB61A9F413C220023301C391C01F0A2F93C210023414305900A1CBB4207D11D1C96425D41181C694211400A1CF8
:40190000031CB61A9F410799019A0498FFF76AFE069B0E9A5860029BD2059B051343201C0A211F1C00F0FEFF000507430A21201C01F07EF83C1C09040C4305980A2100F020
:40194000F1FF000304430A21059801F071F809020C43301C0A2101F06BF8301C0C430A2100F0E0FF069B000104431C6007980499019AFFF778FE069B986009B0F0BDC046A4
:40198000B20700008033E1010085E20180DE280080510100C1A8000037B5084D084CE8680025291C074B1A685B68009512184B41201CFFF71BFF20683EBDC0466002002028
:4019C000AC030020C8030020F0B50023061C89B0141C009304A80B1C321CFFF707FF012323401ED0022525403DD1049F381CFFF79BFD061E3A2E00D8451C60480A210740B7
:401A0000281C039700F08EFF0A210703281C01F00FF8039B09020F431F430497B54222D3A6E00A270F21049E7206520F7A43314052180392551C3A2203998A425B415B42F9
:401A40001D40281C391C00F0F3FF7F239E430E43281C391C00F066FF039B0001064304969D42BFD384E0042525401AD1049F381CFFF762FD061E162E00D8451C40480A215C
:401A80000740281C039700F04DFF0A210705281C00F0CEFF039B09040F431F430497B54266D2E3063BD4059D0827281CFFF74CFD061C281C3C420AD0FFF74EFD071C281CB2
:401AC000FFF752FD011C381CFFF780FE0BE0FFF74BFD0390281CFFF73FFD0399FFF776FE3B1CA34304D0F71D874205D93F1A03E00127864200D2F7192149381C0D400A2174
:401B0000039500F00FFF0A210505381C00F090FF039B09040D431D430595B74228D2A3061BD4059F0125381CFFF716FD061E0B2E00D8451913480A210740281C039700F032
:401B4000F1FE0A210707281C00F072FF039B09060F431F430597B5420AD2630608D4059C201CFFF701FD411C201CFFF712FD059005980499FFF7AEFD09B0F0BDFF80FFFFC1
:401B8000FFFFC0FFFFFFFFE0F8B51D4C236922689B182361226963689A4230D301220023184D2868696812184B412A606B6000239C466146E06823612A686B6812184B4149
:401BC000A669E769B2421AD1BB4218D104230E4A0E4ED1680B43D3600D4B32681A60A368634500D098472A686B680021E068801859413268D2B2FFF7E7FEA061E161F8BD6D
:401C000060020020C8030020AC030020D0000020BC030020F0B50D1C00219D4B8DB01A685B680590009108A8FFF7E0FD089B0A20039370230F21039A039C1A40120942433B
:401C40000C401219059C27683B401B09434339405E189642A441012364422B4000D1E3E0301C0A2100F05EFE0A210301301C069300F0DEFE039807910226FFF755FC2E4070
:401C8000049005D1002C0DD03A2809D8461C03E0381CFFF749FC061C049B00249E4202D2012400E0049E079A069B0A211343301C049300F037FE049B000303430A21301C30
:401CC000049300F0B5FE049B09020B4303980493FFF732FC042303902B4006D1061C002C11D016280DD8461C06E0381CFFF724FC061C3B0200D59DE0039B00249E4201D335
:401D000001E01E1C01246349049B301C0B400A21039300F007FE0A210705301C00F088FE039B0904099E0F433B43301C0693FFF70BFC059B071C5B68181C0393FFF704FC88
:401D4000031CEA0628D42B0716D5301CFFF704FC041C301CFFF708FC011C201CFFF736FD059B0A9A9B689A4200D907339A1AD319834211D91B1A0FE0002C11D0301CFFF719
:401D8000F3FB041C301CFFF7E7FB211CFFF71EFD0123874200D2FB18BB42A4411F1C6442381C0A2100F044FE381C0B040A21049300F0B8FD049B00050343301C0493FFF7D0
:401DC000CBFB20231D400595059B071C324D002B07D1002C0FD00B280AD8441C844208D33BE00398FFF7B8FB041EBC4201D326E00124271C0124049B0A212B40381C049377
:401E000000F090FD0A210507381C00F011FE049B09060D43301C1D43FFF7A6FB059B0119002B2DD0039828E01E1C002C00D017E7161C15E77B0200D45EE70C365CE70A212D
:401E400000F070FD0A210607201C00F0F1FD049F2F400D0635433D43E4E7049B201C2B400A211D1C00F0E4FD201C0F060A2100F059FD00070743301C3D43FFF775FB011CEE
:401E8000281CFFF786FB0699FFF724FC0DB0F0BDC8030020FFFFC0FFFFFFFFE0F7B5061C081C0C1CFFF750FB071C201CFFF754FB0090201CFFF758FB311C0190201CFFF79F
:401EC00009FC0B4B0B4D18605960019A0099381C2E606C60FFF7C7FB074BA86019680748C9B2FFF797FE064B9861D961F7BDC046C8030020AC030020D00000209C0300208D
:401F000060020020012208B5074B08491A700023CB6007490748CB6007490B70074B08491A60FFF7BBFF08BD9803002060020020AC03002027492300C0030020BC0300203C
:401F40001520221108B5034B1B78002B01D1FFF7D9FF08BD98030020024B18688007C00F7047C04604040440012304490A689A43D2B2034013430B607047C0460004044097
:401F8000024B1868012318407047C046040404401F2800D901BE034B8000C318186819607047C0464000002038B5041C0D1E032D00D901BE1F2C00D901BE00F09FFCA30818
:401FC000074A9B009B180322144094400634A240A540196891432943196000F093FC38BD00E400E01F2318401E3B8340181C014B1860704700E100E01F2318401E3B8340A6
:40200000181C014B1860704780E100E008B5034B1B7A584300F068FC08BDC046D4000020F0B5051C87B000F069FCEB1E049003932D2B5CD8314B1B789D4204D8304B1C7878
:40204000304BE4B21EE0304B1B789D4204D82F4B1C782F4BE4B215E02E4B1B789D4204D82D4B1C782D4BE4B20CE02D4B1B789D4204D82C4B1C782C4BE4B203E02B4B1C78DD
:402080002B4BE4B21B78039ADBB20193294B2A4F9A5C059302922F2A04D92A2D02D919263E6008E03F233E681E40029BB34205D2214B029A1A60052000F016FC1C4B1F4A3F
:4020C000ED182B780520DBB213601D4B019A1C601C4B1A60FFF79AFF029BB34208D9059B039A05209B5C3B6000F0FEFB00E001BE049800F007FC07B0F0BDC046C0F1FF0F7D
:40210000C1F1FF0FC2F1FF0FC3F1FF0FC4F1FF0FC5F1FF0FC6F1FF0FC7F1FF0FC8F1FF0FC9F1FF0FCAF1FF0FCBF1FF0FCCF1FF0FCDF1FF0F244C00002CFF0B4028FF0B4039
:402140001CFF0B4020FF0B4008B500F0D7FBC021034A090213680B43136000F0D3FB08BD00010B4010B5802400F0C8FB0749084B0A68E4011A4022430A600A681340802226
:40218000120213430B6000F0BDFB10BD00010B40FF3FFFFF70B5051C00F0B0FB0E4B041C1A68C0231B02134011D10C480C490540281C0E680B4A3240104308600A68012B74
:4021C00001D1FFF7C1FF201C00F09CFB70BDFFF7C9FF0123E9E7C04600010B400404040010020B40FBFBFBFF042238B5224C2368134213D021490B6813420CD0204B9D6947
:4022000008681540A8430860996991439961DB68002B00D098470420FFF7BCFF80232268DB001A4215D015490A681A420DD0144A956908682B40984308609169114B0B4057
:4022400093611369002B00D098478020C000FFF7A1FF80232268DB021A420CD0074A12681A4204D0064B5B69002B00D098478020C002FFF78FFF38BD10020B40E4000020B6
:4022800080020020FFFBFFFF8023024A11780B431370704772000F40034B1B78DB0602D5024B1B78F8E7704762000F4052000F403F2110B5114A124C13788B4336390B436E
:4022C00013700122237813432370FF230D4A13700D4A13700D4A13700A220D4B1A7000220C4B1A7000F00AFB102223781343237000F008FBFFF7D0FF10BDC04672000F40FC
:4023000092000F4002000F4042000F4022000F4032000F4082000F4010B5054C2378002B03D1FFF7C5FF01232370FFF7ADFF10BD9C020020014B18707047C04622000F40C7
:40234000602238B51025094C28432368934323602368513A934323602368184320600120FFF754FE2368AB43236038BD00020440202270B5061C0E4C002023681025134387
:4023800023602368921893432360FFF73FFE0F22301C23682843934323602368184320600120FFF733FE2368AB43236070BDC04600020440F7B57F22244C254D2368CA273F
:4023C000934323602B68234A1B0B1B03134320222B6023687F0093432360236892181343236010260020FFF711FE2368012033432360FFF70BFE184B00201B680193236888
:40240000B3432360FFF702FE2368012033432360FFF7FCFD2368B3432360019B1B0703D40A20FFF7F3FD02E0013F002FD9D1402223689343236023683F32934323602B68C7
:40244000064A1B0B1B0313432B60F7BD00020440080204404902000004020440B60D000010B5041CFFF7A6FF2009FFF781FF0F202040FFF77DFF10BD08B5FFF7F1FF08BDF2
:4024800010B5041CFFF796FF2009FFF759FF0F202040FFF755FF10BD08B503280DD800F037FA02040608803904E0403902E06C3900E02C39C8B2FFF7E3FF08BD10B5041CAF
:4024C00000F01CFAC021044AA40113688B432343136000F017FA10BD00E400E010B50124044B1C60044B18640320FFF7E7FF034B1C6010BD80E100E00000002000E100E016
:402500008022084B92041A600C22074B1A60074B0B3A1A60FA22064B92001A600022054B1A607047000105402401054038010540140105400801054038B50D1C041CAC4077
:4025400000F0DCF9024B1C6000F0DCF938BDC0460800054010B5012400F0D0F9054A13682343136000F0CEF9201C1821FFF7E4FF10BDC0460000054010B5054C2378002B81
:4025800003D1FFF7BDFF01232370FFF7E3FF10BD9D020020F8B5AD4B1B68002B00D09847AB4B1B68DB0702D50022AA4B1A60AA4B1A78920601D4002123E0A84A0021106812
:4025C000C00506D5C024A648A40001882143018001211268D20706D59020A14980000A8802430A8001E00029E5D0012102201A789B4C0A40821A2088024392B22280002235
:402600001A7018781022800600D4F6E0934C206810420CD09349924C0A600121187801400220411A2088014389B22180DAE0187800071BD502202568054209D0894A884979
:40264000106088200A88800002430A8001210DE01878C00702D525221A7007E02420187081480068002801D08048026004251A782A4200D19BE001201A78024243D00826A1
:402680007B4A1468344223D07A4A7B4C156827687A4AEF1B0F2512682A40BA1AB24207D8002A06D17649774A0D682A400A60011C321C754D20682D68013A2818734D2D6868
:4026C000EDB20570206801302060002AF1D117E012682A4214D0684A6B4E1468366834196A4E3668F6B226701468013414601468604A1268944202D2654A156000E0011CEA
:402700006448654A49E002222468144220D05549624C0A6062490D320E680D68216832408A1AE90B0840101A2060842021685D4A800011604A490A88024380200A805A4A12
:4027400040021168014311601068584901402CE0574A1068C00622D5564A1468504A424D10680F2210404D4A08280DD016682868864209D21068504D20180078C0B228605B
:40278000106801301060E9E710682A68904202D14020364A10604948494A106007E01268520604D53D4A11683E4A116001E000294AD03349334A086802400A60002241492D
:4027C0000A602A490A60404A127892070CD50122197823480A400A218A1A01880A4392B2028060221A702FE0384B1A681823920600D4083B264A136026E01978114023D167
:40280000334C20684000400820601A701C4B314A186802401A6018682F4A02401A60294B1C4A1960114B1960254B1A60234A1A4B1A602A4A2A4B1A602A4A0A4B1A60802286
:402840002368120613432360F8BDC046540200208C0E0640880E0640700300200C0F064080030020000F06407C030020880F0640CC0F06408C0300209003002008030640B3
:4028800060000640FFFEFFFF840300204003064068000640ED0F0000C00F064074030020080206407803002004020640FFFFFEFF8C0F06409403002040020640F3070000A5
:4028C000800F0640C80F0640880300206400064000000640FF5FFFFFFFFCFFFFFF0F0000400F0640170300000230800804D0C0460138FDD1C046C046C0467047EFF3108063
:4029000072B6704780F310887047C046C046C04602B4714649084900095C49008E4402BC7047C046002243088B4274D303098B425FD3030A8B4244D3030B8B4228D3030C80
:402940008B420DD3FF22090212BA030C8B4202D31212090265D0030B8B4219D300E0090AC30B8B4201D3CB03C01A5241830B8B4201D38B03C01A5241430B8B4201D34B03D2
:40298000C01A5241030B8B4201D30B03C01A5241C30A8B4201D3CB02C01A5241830A8B4201D38B02C01A5241430A8B4201D34B02C01A5241030A8B4201D30B02C01A5241E0
:4029C000CDD2C3098B4201D3CB01C01A524183098B4201D38B01C01A524143098B4201D34B01C01A524103098B4201D30B01C01A5241C3088B4201D3CB00C01A5241830871
:402A00008B4201D38B00C01A524143088B4201D34B00C01A5241411A00D20146524110467047FFE701B5002000F0FCF802BDC0460029F7D003B5FFF775FF0EBC4243891ADC
:402A40001847C04603460B437FD4002243088B4274D303098B425FD3030A8B4244D3030B8B4228D3030C8B420DD3FF22090212BA030C8B4202D31212090265D0030B8B4210
:402A800019D300E0090AC30B8B4201D3CB03C01A5241830B8B4201D38B03C01A5241430B8B4201D34B03C01A5241030B8B4201D30B03C01A5241C30A8B4201D3CB02C01A7A
:402AC0005241830A8B4201D38B02C01A5241430A8B4201D34B02C01A5241030A8B4201D30B02C01A5241CDD2C3098B4201D3CB01C01A524183098B4201D38B01C01A5241E0
:402B000043098B4201D34B01C01A524103098B4201D30B01C01A5241C3088B4201D3CB00C01A524183088B4201D38B00C01A524143088B4201D34B00C01A5241411A00D230
:402B400001465241104670475DE0CA0F00D04942031000D34042534000229C4603098B422DD3030A8B4212D3FC22890112BA030A8B420CD3890192118B4208D38901921137
:402B80008B4204D389013AD0921100E08909C3098B4201D3CB01C01A524183098B4201D38B01C01A524143098B4201D34B01C01A524103098B4201D30B01C01A5241C30865
:402BC0008B4201D3CB00C01A524183088B4201D38B00C01A5241D9D243088B4201D34B00C01A5241411A00D20146634652415B10104601D34042002B00D5494270476346D7
:402C00005B1000D3404201B5002000F00BF802BD0029F8D003B5FFF715FF0EBC4243891A1847C0467047C046002B11D1002A0FD1002900D1002802D00021C943081C07B46E
:402C4000024802A14018029003BDC046D9FFFFFF03B4684601B5029800F040F8019B9E4602B00CBC7047C04638B500220C4B041C0D1C00F007FF002804D1201C291C00F03A
:402C80005BFE38BD064B0022201C291C00F0DAFA00F052FE80231B069C466044F1E7C0460000E041F0B583B0161C1F1C0090019100F03AFF041C0D1C221C2B1C301C391C86
:402CC00000F008FF009A019B121A8B410899201C0A604B60291C03B0F0BDC046F0B5141C83B01D1C0090019101F016F8221C2B1C061C0F1C00F0EEFE009A019B121A8B41D4
:402D00000899301C0A604B60391C03B0F0BDC046F0B55F4656464D464446F0B4051C061C080387B099464F00030BCC0F92469B467F0D019467D06C4B9F4236D080205B46A3
:402D400040031843C0006B0F1843684B83469C4600239846EE00674400934B4649461D03C90F5B0052462D0B5B0D894600D16EE05D498B4264D080205C4940038C460021DA
:402D80000543ED00500F0543D20063444846FF187B1C9A46009B604002900B430F2B00D9ACE053489B00C3589F465B461D4300D082E00823009300239B4602330026984684
:402DC000CBE7029B01934346022B59D1012400250026019B1C40444B00212D030A0D12052D0B1543434A1B0515401D436D00E4076D082543301C291C07B03CBC904699467E
:402E0000A246AB46F0BD2B434ED05B46002B00D185E1584600F040FE021C2823291C9B1A161C5846D940083EB0400B1CB54003439B462E1C0023304F0093BF1A98468CE743
:402E4000514629432ED10025002202219EE75146294323D0002D00D154E1281C00F01CFE031C28215046C91A1A1CC8405146083A914095400A1C05431F480021C31A85E70D
:402E8000032B00D1C2E1012B00D06DE14446019B00251C40E4B2002300269DE700250022012173E7032171E70423009300239B4601330026984650E70C230093093B9846CC
:402EC0004BE7802500242D030026074B84E74B46AB46161C0193884675E7029BAB46161C019388466FE7C046FF07000001FCFFFF544C0000FFFF0F800DFCFFFF330C360426
:402F0000360C9C46331C140C1204120C53439846634653439946634663430193331C41466343090C4B445B18994505D9802040028146019949440191190C03914146090457
:402F4000090C1B045B1804932B0C9846331C2D04290C4B43604600934346654658435E43009B4D431B0C9946AE194E448446B54203D980235B029946CC44350C2B1C0398D9
:402F8000634484460593009B36041B041B0CF3189C446046039058460504060C280C84465043351C81466046654344434846000C8346724314195C44A24203D980225202F7
:402FC00093465D44220CAD184A461204120C24044046A41862464A437143464360460096464670438046100C84468844E044414505D9802149028C46009961440091019823
:4030000003998446614499429B415B4299460598434684461204120C1B049B1863449C46AB4683429B4140460A19CC44A2428941E344CC45B6415C46000C804649427642F4
:403040005B426418334398448C428941AB459B4149425B4219430D1C009B4544EE187602E50D2E43B346049B56021E43731E9E415B46D20D324366021643DB010AD5012379
:40308000334076081E435B46DB071E435B465B089B465746634BFB18002B5ADD720709D00F223240042A05D0321DB242B6417642B344161C5A46D20106D55A465A4B1A4035
:4030C00080239346DB00FB18584A934234DD0124029B00251C400026554B7DE680205B460003034208D0054206D105432D032D0B4C46161C4E4B6FE65D4605432D032D0B3E
:403100004B4B69E6504600F0C7FC031C2033272B00DCA6E65546083885400022ACE6281C00F0BAFC021C2032272A00DC75E6083885400026AB467DE65A46F6085207164330
:403140005A4601245502029A5B052D0B5B0D144042E6384DED1B382D0ADD0124029B00251C400026002337E6019B5746029391E71F2D25DC304B321C9C466744BE405B4611
:40318000BB40371CEA407E1EB74113433B431E1C5B46EB401D1C730709D00F233340042B05D0331DB342B6417642AD191E1C2B0220D50124029B00251C40002601230BE660
:4031C0005A461E4BDB1BDA40131C202D1CD01C4A94465A466744BA40171C3E43721E96411E4307230025334007D00F2300253340042BD6D16B076D022D0B0124F6081E4377
:40320000029B1C400023E7E50027E6E780255B4601242D031D43019B2D0323401C1C2D0B034BD9E5FF030000FFFFFFFEFE070000FF07000002FCFFFF1E040000E2FBFFFF0B
:403240003E040000F0B54D4644465F465646F0B40E1C111C3203520A470F1743C5001A035800DB0F9946520A4B0F83B01A43CB000193CF4B7400F60F640DB046400D984204
:4032800000D1E8E00123494659400B1C9E4200D1B1E0261A002E00DC1CE1002842D1131C01990B4300D0E6E06B0700D18EE00F232B40042B00D189E02A1DAA42AD41802316
:4032C000012641466D427F191B043B400E40151C002B00D183E0B64B01349C4200D116E13A1CB44BED081A405007640552020543120B640D002112030B0D1B056405120B03
:403300001A436308AC4CF60714401C43640064083443281C211C03B03CBC90469946A246AB46F0BDA24B9C42BED080231B041A43382E00DD03E11F2E00DD3FE12020831BA8
:403340009946131C49468B409C46019B6046F34003430198F2408840011C481E81410B43EB1A9D4280411D1CBA1A4042171A3B0200D4A8E07A02560A002E00D1CAE0301C53
:4033800000F08AFB031C083B1F2B00DDCBE02822291C121AD1409E400A1C9D4032439C4200DDC8E01C1B671C1F2F00DDEDE01F23291C1C1B131CA540A340F9406C1EA541CF
:4033C000FA4019430D43171C00246DE78023012642461B043B401640002B00D07BE7744BED0878070543FA089C423BD012036405120B640D7EE7231A9A46002B00DCA5E01D
:40340000002844D06A48844200D14DE78020000402435346382B00DC1CE1019B1A43511E8A41D1B200224919A94280410D1CD219404217183B0246D55D4B01349C4200D186
:4034400069E101205B4A6B083A4028401843D5070543570828E7131C01990B4300D111E74B4613E72B1C134351D080231B031A431203120B3EE7013E002E00D080E0691A3C
:403480008D429B41BA1A5B42D71A0D1C6FE7101C019B184300D107E701235B429C46E2445346002B00D002E1019BD2195919A9429B415B42D7180D1CBCE76346034300D186
:4034C00028E1071C65466B0700D0F0E6012643461E4084E7002E00D081E0601C4005400D012800DC07E10199681A84466545B641B81A7642861B300200D4A1E08C464D1B97
:40350000AC458941D21B4942561A984634E700220025EFE6281C00F0BFFA2030031C083B1F2B00DC33E7021C283A95402A1C00259C4200DC36E71F4FE41A1740B4E6019B64
:403540001A43511E8A41D3B2002209E7002B00D001E1601C43055B0D012B00DCB0E0144B984200D11EE1019BD2195919A9429B415B42D2184908D5070D435708041C93E6B7
:403580000B4B9C4200D0D3E68EE6211C131C1F39CB40191C202F00D18EE03F231C1BA24015436A1E954100270D4300248BE7C046FF070000FFFF7FFFFFFF0F80331C101C7A
:4035C000203BD840202E79D040239B1B9A40131C019A1343591E8B4100220343C0E6002C53D0C74CA04200D1B0E0802471428946240427434946382900DDCDE01F2900DD61
:4036000059E120243E1C611A8E408A46B04649462E1CCE405146B4468D4064464646494626436C1EA541CF4035430199D71B8C464D1BAC4592415242BF1A041C984696E6C8
:4036400063466546334300D096E60026002700240025C4E61F2B61DC2020C31A9B46131C59468B4051469946019BCB409C464B46604603439C465B46019999406346481E55
:40368000814119435346DA40CDE63C1C2C435DD0F1438946002955D10199D21B8C464D1BAC4589414942571A041C98465FE69448844200D0ADE6F7E5002271E7002387E799
:4036C0003B1C2B43002C00D0DAE0002B00D113E1131C01990B4300D1E6E54919A9429B41D2195B42D7183B0200D421E1854B0D1C1F40041CD8E5381C2843002C40D10028A0
:4037000000D083E0101C0199084303D0171C0D1C9846C9E500260027002560E65046131C2038C340181C5346202B00D1C1E0402351465B1A9A40019911434A1E9141002295
:40374000014370E66E4CA04200D053E7171C019D041C9846A8E5002C28D13C1C2C4300D18AE0DB439A46002B00D082E0019BD2199C4665449D42894149425718041C59E617
:4037800000285BD1101C0199084300D1A4E0171C0D1C98465A4C87E53D436F1EBD410027EDB242E7041C0027002518E6544CA04262D0534680245B429A4624042743534606
:4037C000382B00DD8EE01F2B00DD9DE02024E31A9B463B1C59468B40514699462B1CCB409C464B46644623439C465B469D4063466C1EA541CF401D43019BBF189C46654463
:403800009D4292415242BF18041C13E6101C0199084300D148E5681A844685428041BE1A4042301A060200D447E68C464D1BAC458941D21B4942571A984635E5101C019926
:40384000084334D080247807ED08FF0824032843274208D0D608264205D1C90852070A43101C371C9846FF00420F1743C500244C1AE5234CA042A2D1171C019D041C13E58C
:40388000002B35D0131C01990B4310D080247807ED08FF08240328432742E4D0D3082342E1D1C90852070A43101C1F1CDBE7144CFAE400223FE74C463E1C203CE6404946FE
:4038C000341C202932D04026761AB7403D436F1EBD4100272543A8E680270026FF03084C00257CE53D436F1EBD410027EDB283E7171C019D024CD7E4171C019DD4E4C046CB
:40390000FF070000FFFF7FFF54463B1C203CE3401C1C5346202B0DD0402351465B1A9F403D436F1EBD410027254365E70027CDE70D1CC8E50027F3E70B0330B5134C1A0B3F
:403940004B00051C5B0DC90F0020A34210DD104883420EDC80200F4C40030243E41A1F2C0ADD0D48C31ADA40131C48424340581830BD0A4BC818FBE7281CE040084CA44651
:4039800063449A40131C0343EFE7C046FE0300001D0400003304000013040000FFFFFF7FEDFBFFFF38B5041E16D0C50F00D04442201C00F071F8174B1B1A0A2821DC021CCB
:4039C000211C153291400A1C0B21081AC4405B052403240B5B0D03E000250023002400220021101C24030A0D1205240B14430A4A1B0514401C436400ED0764082C43211CAC
:403A000038BD0B3884405B052403240B5B0D0022E6E7C0461E040000FFFF0F808446101C62468C46191C634600E0C0461FB500F0D3FA002801D40021C8421FBD10B500F04A
:403A400017FA4042013010BD10B500F0C5FA002801DB002010BD012010BDC04610B500F0BBFA002801DD002010BD012010BDC04610B500F041FA002801DC002010BD012008
:403A800010BDC04610B500F037FA002801DA002010BD012010BDC0461C2101231B04984201D3000C10391B0A984201D3000A08391B09984201D30009043902A2105C401848
:403AC0007047C04604030202010101010000000000000000F0B54F46464605042D0C2C1CC0B41704160C3F0C9946030C7C4375435F4373437D19260CAD199C46AF4203D9B4
:403B000080235B029846C4444B465143434324042E0C240C2D0466442C1959188919201C0CBC90469946F0BDF0B544465F4656464D46F0B41C1C85B0002900DAA9E00F1CFE
:403B40000021061C8846101C191C002C00DA97E0341C3D1C82468946B94273D870D04946504600F09FFA8346391C301C00F09AFA5B46181A031C8346203B9C4600D59CE0AB
:403B80000023002251460092019363469940019151468140019B0091BB4200D983E000D17EE0009A019B341C3D1CA41A9D416346002B00DA9AE000260027029603970136A9
:403BC0009E400396012686400296002800D171E00099019AD30799464B464E081E435708002301220CE0AF4201D1A6420AD8A41BBD4124196D410138A4185D41002806D0F3
:403C0000AF42F0D9013824196D410028F8D12022029E039F5B46524236196F4199185AD4281CC8402C1C5B46DC40002968DB041C8C40231C59468840021CB61A9F4103E01E
:403C4000B0428CD90026002741464B1E9941002300910193009A019B002554429D41331C6340181C3B1C6B40191C009B019CC018614105B03CBC90469946A246AB46F0BDC8
:403C80004346DB430C1C9846131C00215842A1415EE7002746428F4101214942884652E7B14200D87DE70026002702960397002800D08DE7029E039FC6E720215346091A0D
:403CC000CB400022191C0023009201934B4683400B4301935CE75A4620239B1A2A1C9A40201C131C5A46D04018439BE720260027331A0026029603970127DF40039761E7B5
:403D00005B4620215D46C91A031CAC40CB40191C231C0B438EE7C046F0B545464E465746E0B4041C82B00D1C914698468B4262D85FD04146484600F0B5F9291C061C201C17
:403D400000F0B0F92023311A5B428A46C81865D44B4683401F1C4B468B401E1CAF4258D855D0A41BBD41002800DA77E0002200230092019301328240019201238B400093A0
:403D800000293CD0FB079846404672087B080243012600270CE0AB4201D1A2420AD8A41A9D4124196D410139A4197D41002906D0AB42F0D9013924196D410029F8D120221D
:403DC0000098019953465242001969419E183AD42F1CF7405346DD40002E29DB3C1CB440231C5446A7403A1C801A99410090019105E082429DD90023002400930194009855
:403E0000019902B01CBC90469946A246F0BDA342A7D90022002300920193B1E720224B46521AD3401A1C43468B401F1C174392E7534620245646E41A3B1CB540E3401C1CA4
:403E40002B1C2343CDE7524620239B1A2A1C9A40271C131C5246D7401F43BBE720230022581A0023009201930132C240019284E7F0B55F464D4644465646F0B41F035C0094
:403E8000DB0F99461B4B0E034D00C90F8446360B6D0D8B4690463F0B640D9D420CD0154B9C4210D00123A54214D0181C3CBC90469946A246AB46F0BD311C01230143F4D10D
:403EC0000C4B9C42EED13A430123002AEDD10123A542EAD1BE42E8D1C445E6D1CB4506D0002DE2D13043031C581E8341DDE70023DBE7C046FF070000F0B5574645464E465E
:403F0000E0B40F034E00C90F8A4632491D035C0084463F0B760D90462D0B640DDB0F8E420FD08C4239D0002E10D13843414241418946002C27D12A4325D1002000290ED15B
:403F400008E0391C01432ED1B44226D0002C0BD09A450DD05346594201231943081C1CBC90469946A246F0BD2A43F3D09A45F1D1A642EFDC1ADA5046414248410123414257
:403F80001943081CEBE74A46002AE1D058425841012241421143081CE1E7291C114302D1002EC2D0D4E702204042D8E7AF42D1D809D00020AF42D2D25046414248410123F3
:403FC00040421843CBE7C445C4D80020C445F3D3C5E7C046FF070000F0B55F464D46444656468046F0B4061C0803000B84462C484C001F035D00C90F640D8B4691463F0BFD
:404000006D0DDB0F844212D0854225D0002C14D161460E4370424641002D35D0002E21D058425841012143420B43181C0EE06146022031430AD1A5420ED0002D12D13A4371
:4040400010D15B46594201231943081C3CBC90469946A246AB46F0BD391C02201143F5D1002CD5D09B45ECD1AC42EADC05DBBC45E7D80FD00020BC45E8D258464142484195
:40408000414201200843E1E73A43C7D10020002EDCD1D6E7C845D4D80020C845EDD3D5E7FF07000010B5002903D1FFF7F5FC203002E0081CFFF7F0FC10BDC046014B186894
:4040C0007047C046480100200E4B70B500251E1C0D4CE41AA410A54204D0AB00F35898470135F8E700F0F2FD084B00251E1C084CE41AA410A54204D0AB00F35898470135B0
:40410000F8E770BDD84C0000D84C0000D84C0000E04C0000002310B5934203D0CC5CC4540133F9E710BD031C8218934202D019700133FAE77047000038B5104B051C1C6888
:40414000A36B002B15D1182000F0A4F80C4BA06303800C4B012243800B4B83800B4BC3800B4B038105234381063383810023026143610022A36B1D615A6138BD480100205C
:404180000E330000CDABFFFF341200006DE6FFFFECDEFFFF154B10B51C68A36B002B15D1182000F077F8124BA0630380114B01224380114B8380114BC380114B038105235F
:4041C000438106338381002302614361A46B0D4A206961690C4BFFF77DFC0122002380185941206161614800400810BD480100200E330000CDABFFFF341200006DE6FFFF46
:40420000ECDEFFFF2D7F954C2DF451580EB410B59DB002A9029008610B48822488604861012040421FABC881084804CBA400006801938C8100F036F90023029A13701DB0AB
:4042400010BC08BC03B01847FFFFFF7F48010020021C10B51378002B01D00132FAE7CC5CD4540133002CFAD110BD031C10B51C78002C0AD00133FAE70C781C70002C07D04B
:40428000002A00D15A7001330131013A541CF3D110BD000008B5034B011C186800F04AF808BDC0464801002030B500293ED004390B68002B00DAC9181D4A1368141C002B9A
:4042C00002D14B60116031E099420DD208680A189A4203D11368C3180B6053684B60216024E08A4203D8131C5A68002AF9D11D685C198C420BD10968691858181960904239
:4043000014D110685268091819605A600EE08C4202D90C23036009E008680C18944203D114685268001908604A60596030BDC046A4020020032370B5CC1C9C430834051C80
:404340000C2C01D20C2405E0002C03DA0C2300202B6042E08C42F9D3204A1368101C191C002913D00A68121B0DD40B2A02D90A608B181FE08B4202D15A6802601BE04A681F
:404380005A600B1C17E00B1C4968E9E7144E3368002B03D1281C00F001FB3060281C211C00F0FCFA031C421CD0D00322C61C964386420AD11C60181C07210B301A1D8843A5
:4043C000821A0AD05142995007E0311A281C00F0E5FA431CBAD0331CECE770BDA4020020A0020020F0B58E6885B0071C0C1C03920193B34245D390238A89DB001A423DD06B
:4044000003250969236801985B1A029363695D43EB0F5D19029B6D1001331B189D4200D21D1C381C53050FD5291CFFF783FF061E13D0029A2169FFF76DFEA289184B1340B1
:4044400080221343A38111E02A1C00F0D8FA061E0CD1381C2169FFF727FF0C23402201203B60A38940421343A38117E0029B2661F61826606561019EED1AA560019BB34206
:4044800000D2019E321C2068039900F0A4FA0020A3689B1BA36023689E19266005B0F0BD7FFBFFFFF0B59FB0029005938B890E1C171C1B0610D50B69002B0DD14021FFF79C
:4044C00039FF30603061002804D10C23029A01381360D0E040237361002306AD6B6120336B761033AB763C1C2378002B03D1E31B049312D003E0252BF9D00134F4E7049BBA
:404500000298311C3A1CFFF76DFF431C00D1ACE06A69049B944663446B612378002B00D1A3E00122002352426A6002A95432521801342B60EB60AB601370AB654F4F217828
:40454000381C052200F03CFA002808D0C01B01278740381C2B68013418432860EEE72B68DA0604D55322202102A8121811701A0704D553222B2102A81218117022782A2AA7
:4045800001D0099B0EE0059A111D12680591002A01DB099204E05242EA60022213432B60013409E02278303A092A04D80A214B4301349B18F6E7099323782E2B18D1637850
:4045C0002A2B09D1059B02341A1D1B680592002B0DDA01235B420AE0002301342278303A092A04D80A214B4301349B18F6E70793234F2178381C032200F0E2F9002807D0D7
:40460000C01B40278740381C2B6801341843286021781C480622671C297600F0D1F9002812D0194B002B06D10722059B073393430833059314E005AB00930298291C321CF1
:40464000124B00E000BF07E005AB00930298291C321C0E4B00F08AF80390039B013304D06B69039A9B186B613DE7B3890B985B0601D5012040421FB0F0BDC046964C0000B2
:404680009C4C0000A04C000000000000E5430000F7B5171C01930A698B6800900C1C934200DA131C221C3B6043321278002A01D001333B6023689B0602D53B6802333B6077
:4046C000062523681D401ED0231C43331B785A1E9341226892061CD53020E1184031C870211C5A1C45310978A21840320233D1700FE0221C0123009801991932089EB04769
:40470000431C0ED00135E3683A689B1A9D42F0DBDAE7221C009801994332089DA847431C02D10120404220E006232068E1683A6803400025042B03D18D1AEB43DB171D4080
:40474000A3682269934201DD9B1AED180027AF420ADA221C0123009801991A32089EB047431CDED00137F2E70020FEBDF0B58BB006920A1C43320793059004920A7E0C1C3C
:40478000109B6E2A00D1A8E011D8632A22D009D8002A00D1B2E0582A00D0C2E045310A707C4A4FE0642A1DD0692A1BD0B9E0732A00D1A7E009D86F2A29D0702A00D0B0E0BA
:4047C000202209680A43226037E0752A1FD0782A33D0A6E00E1C1A684236111D196013683370A1E021681A68080606D4490604D5111D19600023D55E02E0111D19601568DF
:40480000002D3BDA2D23049A6D42137036E021681A68080606D4490604D51568111D1960ADB202E0111D196015685A4B227E03930A276F2A1DD108271BE0221C7821453251
:404840001170554A19680392081D226818600D68100602D4500600D5ADB2D30702D520231A4322601027002D03D1202322689A432260231C002243331A7002E00A27454BB5
:4048800003936368A360002B03DB0422216891432160002D02D1049E002B0ED0049E281C391CFEF7C5F8039B013E5B5C281C3370391CFEF737F8051EF1D1082F09D123687A
:4048C000DB0706D563682269934202DC3023013E3370049B9B1B23612BE009681A68080607D4490605D5111D19601368A28A1A8004E0111D1960136862691A600023049EDC
:40490000236116E01A68111D196016680021301C626800F055F8002801D0801B6060636803E0261C42363270012323610023049A1370079B05980093211C069B09AAFFF73F
:40494000A7FE431C02D10120404221E0236905980699321C079DA847431CF4D023689B0705D4099BE068984212DA181C10E00025E368099A9B1A9D42F3DA221C01230598A1
:4049800006991932079EB047431CDCD00135EFE70BB0F0BDA74C0000B84C000038B50023064C051C081C2360FCF79CFA431C03D12368002B00D02B6038BDC046D003002016
:4049C000C9B28218904204D003788B4202D00130F8E70020704710B5814208D28B18984205D29B1A013A09D3995C8154FAE70023934203D0CC5CC4540133F9E710BDF8B535
:404A0000061C0C1C151C002904D1111CFFF792FC041C18E0002A03D1FFF746FC2C1C12E000F013F8A8420ED2301C291CFFF782FC071E07D0211C2A1CFFF76CFB301C211C95
:404A4000FFF732FC3C1C201CF8BD0B1F1A68101F002A04DA891804390B68D0180438704700000000C4F0FF7F01000000424C455F5374617475733A20000000000000000077
:404A80005556204C616D703A2000000000000000000000004F53205374617274004F70746963204572726F72004F70746963204F4B00446576696365204F5054333030316E
:404AC00020454E002530326C753A2530326C753A2530326C75002020004F4E00436F6E6563746564004272696768746E6573733A20000000000000000000000000004C781E
:404B0000004F5054204572726F7220526561640001000F4032320F4023330F4006400F400D410F4002600F40820F0A040B0E0C011A071D0827032E082F01300231083201F8
:404B4000330234083501360437043F104020410545D54612480F49FF4AFF4BFF4DA04F04501852805407580459045A045B045C995D995F01604062C06440654066C068C091
:404B80006AC06CC06EC0B001BE01D804DF01044005100F0817401B011C401D701E201F20268027A82E802F2036803F2045204F89568057505E205F897740832085408B01AA
:404BC000C0C0C240C480CA50CC10CE20D020D210D6F0E2804120432057806F20D440DA8021205C016408800184088B80A520A780C810D680D880E280E61002011101000078
:404C000000001F003B005A0078009700B500D400F300110130014E011F1C1F1E1F1E1F1F1E1F1E1F030405060708090A0B0C0E0F101112131415161718191B1C1D1E1F2050
:404C400021222325262728292A2B2E2F3031323334350000FC2E0000DA2E0000DA2E0000CE2E0000C22D0000C22D0000C22E0000CE2E0000C22D0000C22E0000C22D00005C
:404C8000CE2E0000C62D0000C62D0000C62D0000DC3000004300232D302B2000686C4C006566674546470030313233343536373839414243444546003031323334353637A3
:404CC000383961626364656600000000F8B5C046F8BC08BC9E467047910200005D0F0000F8B5C046F8BC08BC9E46704769020000004D0000C80000208800000088020000B1
:404D000000000000D8030020FF0000000000E02EC05D00001800000000366E0104040400000000000000000000000000000000000000000000000000000000000000000085
:404D4000944C000000000000000000000000000000000000000000000000000000000000000000000000000000000000000000000000000000000000000000000000000053
:404D8000E8000020000000000000000000000000000000000000000000000000000000000000000000000000000000000000000000000000000000000000000000000000EB
:404DC00000000000000000000000000000000000000000000000000000000000000000000000000000000000000000000000000000000000000000000000000000000000B3
:404E00000000000000000000000000000000000000000000000000000000000000000000000000000000000000000000000000000000000000000000000000000000000072
:404E40000000000000000000000000000000000000000000000000000000000000000000000000000000000000000000000000000000000000000000000000000000000032
:404E800000000000000000000000000000000000000000000000000000000000000000000000000000000000000000000000000000000000000000000000000000000000F2
:0200000490303A
:020000002F2EA1
:0200000490402A
:200000000000000000000000000000000000000000000000000000000000000000000000E0
:0200000490501A
:0C000000000204B61193110104CF40C1AE
:0200000490600A
:0100000001FE
:00000001FF