:4000000000100020110000008D0100008D01000008B500F093F900F0BBF8000010B572B68024E400221C0021264800F000FF221C0021254800F0FBFE9923EE21234A1B044A
:400040001360234A0902116002213C20214A224C1360224A1360224A13780B43214913700B788343283803430B70162113780C300B431370C4221C4B920218601B4B1A60D6
:400080001B4B1C4A18601C4B18601C4B1A6080222368D2021343236000F002FD184A194B1A601022184B1A608022184B12061A6080231B032360164A164B1A600022164B8B
:4000C0001A6010BD00300F4000400F40000001400C00014000500F4000010B4030500F4000700F4001700F40000004400800044018000440800D03000003044008030440D2
:400100000600008004010B400C02024008010B4016000080000002400C020B4010B5064C2378002B07D1054B002B02D0044800E000BF0123237010BDF00000200000000093
:40014000480E000008B5084B002B03D00748084900E000BF07480368002B00D108BD064B002BFBD09847F9E700000000480E0000F4000020D00000200000000008B562B62C
:40018000012000F093FB00F05DFBFEE7FEE7000070B51049104B01394A1C15D000221E685C689D68A018AA4203D0B058A0500432F8E7021CDC68151AA54202D0002520C2EA
:4001C000F9E710330139E7E700F002FEFFF7D6FFFEE7C04601000000A80E000008B500239A000D49032B01D80C4989580C4801338150302BF4D1FFF711FF0022094B1A60FB
:40020000094B1A68002A00D11A6080220121D20513680B43136008BD8D0100000000000000000020C8000020C0000020004770B5051C0E1C141C002802D0002000F002FC72
:400240000020002C05D0013CAB191B5DC018C0B2F7E770BDF0B57F23051C9D432E1C2B1CA3B00191C40980361A789446614602AA571BF9540133B342F6D17F2318406B4635
:400280001B79111C1354A0B200F01CFB23B0F0BD013808B50B282FD8C901494200F084FD06080A0C0E10141216191B20174B13E0174B16E0174B0AE0174B12E0174B0BE0DB
:4002C000174B09E0174B02E0174B00E0174BC91816E0174B05E0174BC9180878C0B213E0154BC9180A7848788B7800021B041843CB7810431B0606E0002000F0A3FB002117
:400300000B7848780002184308BDC046C07F0000C17F0000C57F0000C97F0000D07F0000D17F0000D67F0000D27F0000D47F0000D87F0000DC7F0000E07F00000C4B10B582
:400340001A68102313400B4A00D113601368802B0DD100240220211C1460FFF799FFA04205D0211C0220FFF793FFFFF75FFF10BD00030B40C0000020F8B5041C0320211C39
:40038000FFF786FF211C061C0420FFF781FF211C071C0620FFF77CFF0025012828D00320211CFFF775FF0136F601F7192E1C0130C001B84209D203785A1ED2B2FD2A00D8FD
:4003C00001265D19EDB20130F3E70120211CFFF75FFF6D42EBB20625834209D1002E07D0044BE4016042C0180121FFF733FF0025281CF8BDD17F0000F0B5C44CA544029053
:4004000000F0E2FB62B600250A23019504950393029AFF23002A00D0131C96212AAF07AC381C4900221C00F0D3FB029B002B03D0039B013BDBB20393039B002B02D00028A2
:40044000E6D102E0002800D08CE02188062900D896E03A780423012A54D1FE78BA7836021643F21D8A4200D98CE0962149008A4200D987E0BF19B87979793A79172841D1CC
:400480000020F3189BB2002B09D0C0ACA04FE418E4192478013B001980B29BB2F3E74042090280B20A43083382422BD16CE0342B00D00AE1019B012B62D1032E60D175A83B
:4004C0000021802200F0B3FC8025972175AB581906ABAD19F21EC918ADB200F09FFC832D00D06DE1962206AB9B181D78013A06AB9B1818782D020543FF2D00D865E10123C7
:4005000001930A23002406AAD48001212AAA5370230AD370002311709470221D92B2002A09D0C0A97A48891809180978013A5B189BB292B2F3E7C0AA764912195B4251189A
:400540009BB20B7074491B0A51180B70734B0734D2181723137006AB9A1DA1B22AA8962300F068FB029B002B00D151E7019B012B00D05DE1012301934AE7019B012B50D03C
:400580000423BFE70323BDE72AAF7B783C79181C313814282ED9624A1468002C26D0019A012A25D106AA56810AAE13722BAF00210C22301C099700F03AFCB76008A8311C2A
:4005C000A0472623B488FF339C4202D9B368BB4207D0B268002A01D1002C04D13368DBB291E70E238EE70E23141C8CE705238AE7052387E700F0E2FBC1FF4B00CFFF5BFF55
:400600007100CFFF760098005BFFA900D500CFFFCFFFCFFFCFFFCFFFCFFFCFFFCFFFCFFF1E00002EACD1301CFFF7A6FE434243413B71B3E0019B012BA2D1321C7F339A4348
:40064000032A9DD1BB7905937F79032E06D0972106ABF21E75A8C91800F0E0FB002C00D0AAE0059B1B021F430A23FF2F00D94AE7FF01391C3B1C803175AAD21B1878D25CA1
:40068000824200D09AE001338B42F5D13BE0019B012B00D074E7012E00D071E7002C00D06EE7204B1B681B68DA0BD2B2DB09DBB2002A01D080235B003B711B0A7B71FF238C
:4006C000BB7100230424FB711DE7019B012B00D056E7022E00D853E7F7E6019B012B00D04EE79FE0019B012B00D049E72C33AF19FF339F4200DD45E775AB58192BA9321C15
:4007000000F08CFBBDB200231C1CFCE6FCFCFFFFA7FDFFFFACFDFFFFADFDFFFFAEFDFFFF0C010020D4000020002E00D028E70AAB191C414A351C11CA11C12BAA03CB03C2FD
:40074000012308240193331CDDE6019B012B00D016E7032E00D013E7BE797B7936021E43FF2E00D9CDE621027118C90100208022FFF75DFD071C002C0DD1FF2E0BD1211C7B
:400780000520FFF785FD211C3F1A0620FFF780FDFFB23F1AFFB27F422AAB1F7100230124B1E60020FFF7E8FD002802D18022234B1A6000F049F9E3E60923A3E60223A1E6D1
:4007C000012300250193023325E01D4B1B681A68D3099BB2520601D001339BB224022D19ADB29D4219D3049B002B0AD1191C80220AA800F01CFBFF200AA900F063F8012396
:400800000493281C75A900F05DF8002805D10123051C0193031C2C1C75E60123002501930933F8E70025029BAB4200D1F0E5A1E6C1239B009D44F0BD4C0E0000C0000020C6
:40084000D400002038B50020FFF796FD431E98410625144C4042236805401A680020C03AC021FFF7E4FC63681B78181AC0B2984203D123681B68002B02D1002000F0E2F8DE
:40088000094C2368402B01D0002D03D000202060FFF7B2FD1420FFF7AFFD8023236000F0D3F838BDD4000020C00000202023044940010A689A43D2B2034013430B607047F8
:4008C00000030440F0B50024ADB008940994FF2800D995E0A14200D192E0049080220CA800F09CFA0222231C211C01940AAD90004059002802D00918034301920132222ABF
:40090000F4D1002901D1002B7DD1002702977F234249434C0A91434E6B60434B2560336022680793120F069100230A2A02D022680F3313400893089B0393002B6AD100F017
:4009400091F93A4A3A4B116805901960039B03920993089B002B12D1364A04990A920A9A09040A430A92344A256032602268120F0A2A03D02A4B1A680F2313400893089D87
:40098000002D31D1002F2FD080220CA8291C00F04EFA019B029A0AAF9B00DA51069B0A937F237B60079B2760336023681B0F0A2B03D01B4B1D680F231D400895089B002B37
:4009C00012D11E4A04990A920A9A080410431C4A0A90276032602268120F0A2A03D0104B1A680F2313400893099B002B04D1104A039912680A600993059800F037F909E0E8
:400A00000423089306E0019B01279B00EA58E95002927CE708982DB0F0BDC046B6D7000008000040040000400400008008010B4010010020B6D8000005000080B6D9000049
:400A40000600008001BE7047034A044913689BB20B4313607047C0460CED00E00400FA0510B5041C8022074B1202944205D9186800F0EEF8044BE418F4E75868604300F04E
:400A8000E7F810BDDC0000200080FFFF08B5034B1B7A584300F0DCF808BDC046DC000020F0B5051C87B000F0DDF8EB1E049003932D2B5CD8314B1B789D4204D8304B1C78F0
:400AC000304BE4B21EE0304B1B789D4204D82F4B1C782F4BE4B215E02E4B1B789D4204D82D4B1C782D4BE4B20CE02D4B1B789D4204D82C4B1C782C4BE4B203E02B4B1C7873
:400B00002B4BE4B21B78039ADBB20193294B2A4F9A5C059302922F2A04D92A2D02D919263E6008E03F233E681E40029BB34205D2214B029A1A60052000F08AF81C4B1F4A64
:400B4000ED182B780520DBB213601D4B019A1C601C4B1A60FFF79AFF029BB34208D9059B039A05209B5C3B6000F072F800E001BE049800F07BF807B0F0BDC046C0F1FF0F31
:400B8000C1F1FF0FC2F1FF0FC3F1FF0FC4F1FF0FC5F1FF0FC6F1FF0FC7F1FF0FC8F1FF0FC9F1FF0FCAF1FF0FCBF1FF0FCCF1FF0FCDF1FF0F540E00002CFF0B4028FF0B40DD
:400BC0001CFF0B4020FF0B4008B500F061F808BDF8B5012700282BD0002929D0161C0D1C041C09375F4300F067F8002810D000F063F8071CAD20FFF749FF00F05DF8874205
:400C0000F5D13B1EAB4200D92B1C3380002707E00120013FFFF724FF002FE4D13B1C1037E518AC4204D000F041F820700134F8E7381CF8BD38B50C1C151C0123002805D0CF
:400C4000002903D000F04EF800232C80181C38BD0230800804D0C0460138FDD1C046C046C0467047EFF3108072B6704780F310887047C046C046C0468021044A08B513689A
:400C800009060B43136000F081F808BD0000074010B5054C2378002B03D100F02FF801232370FFF7E9FF10BD14010020014B18687047C04640030740024B18680F23184027
:400CC0007047C04608030740044B1A680F231340082BF9D0024B18607047C046080207404002074038B5041C4518AC4204D02078FFF7EAFF0134F8E738BD0000124A134BD1
:400D000010B51A60002301210724114A11481360114A1160114A026011480460114803601148016011490A60114A1360114A1360114A1360114A1360114A1360114A136089
:400D4000114A136010BDC0460B00000200000740400007400003074048000740070000800403074010030740440007400002074004020740880E0740C80E0740480F074036
:400D8000080F0740C80F0740880F0740044A054B11680B40902109040B4313607047C04600000140FFFF0FFF02B4714649084900095C49008E4402BC7047C04603B471467E
:400DC000490840004900095E49008E4403BC70470E4B70B500251E1C0D4CE41AA410A54204D0AB00F35898470135F8E700F04AF8084B00251E1C084CE41AA410A54204D0EF
:400E0000AB00F35898470135F8E770BD900E0000900E0000900E0000980E0000002310B5934203D0CC5CC4540133F9E710BD031C8218934202D019700133FAE770470000B5
:400E4000000F000004000000000000009311B60411280101030405060708090A0B0C0E0F101112131415161718191B1C1D1E1F2021222325262728292A2B2E2F303132333F
:400E800034350000F8B5C046F8BC08BC9E46704745010000DD010000F8B5C046F8BC08BC9E4670471D010000B80E0000D0000020200000002800000000000000400E0000AF
:400EC000440E00000000401F803E0000100000000024F40000000000000000000000000000000000000000000000000000000000000000000000000000000000000000005B
:400F000000100020110F0000251B0000251B000008B5024B83F3088800F01CFE00100020F8B572B601225D4B00211A7080225C48D20003F044FE80225A480021D20003F0D5
:400F40003EFE0020041C584AFF25875818323E1C111C6300AE433D4001336419D318620001328A18934206D0591E09781D7889190D700233F6E704301828E4D199234B4AF8
:400F80001B0413604A494B4A01241160EE214A4A09021160EE21494A3C2511608021484A49021360474A11608621474AC9051360464A1160464A02211360464A1360802216
:400FC000454B92021A60454B454A1C6013780B43444913700B78AB43283D2B430B7016211378414D0B4313702123C4213F4A890213603F4A11603F4A3F49136090223F4B85
:401000001A603F4A3F4B1A6080233F4A13603F4A11603F4A13603F4B3F4A1C603F4B1A6003223F4B1A603F4A3F4B1A6080222B68D20213432B6001F01DFE2A683B4B3C4938
:4010400013402B603B4A3C4B09201A6020223B4B1A603B4B0F3A1A603A4B013A1A603A4B20321A608222394B12061A60384B394A1360394A1360394A394B1A60394A3A4B1B
:401080001A6001F0A3FD092001F0CAFD0022374B201C1A6000F0ACFDF8BDC0461C700F4000300F4000400F40C45400000000014000000330040001400C000140100001403E
:4010C00000500F4008500F4010500F4018500F4020500F4030500F4034500F402000004000700F4001700F4000010B40000004400800044018000440B66D1B000001044049
:401100000060C0000801044000020440080204401802044000030440820D1B0008030440000404402400000208040440FFFFFBFF3D2E00000600008004010B4008020240CD
:401140000C0202401C0202402002024008010B400E00008000000240400002401700008080000240E2000080040002400C020B4010B5064C2378002B07D1054B002B02D059
:40118000044800E000BF0123237010BD58010020000000001454000008B5084B002B03D00748084900E000BF07480368002B00D108BD064B002BFBD09847F9E70000000011
:4011C000145400005C010020D000002000000000FA2108B50248890000F07EFB08BDC046E511000008B50A21054800F075FB00F0C1FA044800F0DEFA00F026FB08BDC04615
:401200005D1300004854000070B52D4C94B0211C05A80D2203F0CAFC212000216844072203F0CDFC0A25211C2A1C14310AA803F0BDFC32202A1C6844002103F0C0FC214928
:40124000032203A803F0B2FC1F4B049301F0C2F91E4C20602068216826684B045B0F6B430905090F5B180F2174068202640F6C43920F6A430E400003000FA419121800944E
:401280000FA8134903F0A4FC03A905A803F0C2FC04A90AA803F0BEFC0FA800F08BFA0D4800F088FA05A800F085FA0AA800F082FA00F0CAFA0848C82100F00EFB14B070BD6E
:4012C000205400006F5400004F464600B402002051540000E40200200912000037B56B469C1D002369462370174BCD1D5A68002A1DD05868A02102F051F9C0B22070237806
:40130000642B01D9642323702078C0B203F096F80E4A0F4B02F048FA021C0B1C00200D4902F0DCFC02F0ECF9C0B2287001E044232B702878C0B201F027FEFA210648C90016
:4013400000F0CAFA37BDC04600030020C3F5285C8FC2E53F00005140DD12000037B56B469C1D45207F21221C00F09CF8002803D10E4800F01FFA17E001AD45207E212A1C04
:4013800000F090F80028F3D02A88094B9A420BD12288084B9A4207D1074800F00BFA074800F008FA00F050FA37BDC0467254000049540000013000007E5400008754000061
:4013C00038B5174C237A002B10D100F029F9051E144805D0FA21890000F07EFA012316E09621490000F078FA257217E0237A012B14D100F090F80B4D00280AD00A4800F0B6
:4014000027F9FA21281CC90000F066FA0023237204E0C821281C890000F05EFA38BDC04600030020C11300000403002008B501F0DBFE002801D101F0DFFE08BD08B562B678
:40144000FFF7F4FF01F0C2FE01F090FD00F0ECFB00F01CFE01F094FBFA210120890000F051FF00F079FA0A4800F022FA00F082F9084800F01DFA0848084900F02DFAFA2198
:401480000748C90000F028FA00F0F8F9FCE7C046DD120000D1110000C11300001405000009120000F0B585B002ABDD1C061C0F1C002301922B70002C0DD02B78092B08D881
:4014C000301C002100F024FC2B78C4B20133DBB2F0E700201DE0381C00F0B4FC301C012100F074FDC0B20028F3D1201C00F0E8FC03ACC0B22070012000F0E2FCC0B260708E
:40150000237862781B021343019A138000F05CFC012005B0F0BD13B56B469C1D45200121221CFFF7BFFF002801D02088C00B16BDF0B585B002AB9C1C0123237002ABDD1C44
:40154000071C0E1C002301922B702378002B0CD02B78092B09D8381C002100F0D9FBC0B220702B780133DBB2EEE7019B03AD1B88301C1A0ADBB22A706B7000F063FC2878AF
:40158000C0B200F05FFC6878C0B200F05BFC00F01BFCC0B22070207843425841C0B205B0F0BD73B5041CFFF7B6FF051E012D34D16B469E1D4520291C321CFFF773FF002805
:4015C0002BD045200021321CFFF76CFF002824D0308803051B0D000B0B281CD801F0D4FF06080A0C0E101B121416181A9B0912E05B0910E01B090EE0DB080CE09B080AE09E
:401600005B0808E05B0006E09B0004E0DB0002E01B0100E05B01236000E00025281C76BD13B56B469C1D45200121221CFFF73AFF00280CD0802223889200134345200121A5
:40164000221C2380FFF774FF431E9841C0B216BDF0B5002795B002AB0DAEDC1C019035490D2205AD301C2770AF7303F09FFA392002ABC018391C0C2203F0A1FA09AF2E4991
:40168000032203A803F092FA381C2C490F2203F08DFA04A8FFF785FF00283AD0019B049A1A60101C00F08AF900F084F90378002B0BD023782278DBB2825CEA542378013321
:4016C000DBB223702378C35CF1E723702378DBB2EB5CDBB2202B03D123780133DBB2F4E7217807226918301C03F0A1FA301C03A9032203F09CFA002323702378182B16D80E
:4017000023782278B15C0E4AD15423780133DBB2F2E720702378182B09D823782278B95C074AD15423780133DBB22370F2E7044815B0F0BD99540000B2540000B554000024
:40174000E4020020002110B50022142320244B4306489B1801321C54142AF6D101310429F2D10022024B1A7010BDC04615030020B002002008B5002001F0ACFC002001F02A
:40178000A9FC022001F0A6FC2A2001F0A3FC082001F0A0FC012001F09DFC022001F09AFC062001F097FCFFF7CDFF0C2001F092FC08BD0000F0B5224B01781D780022EDB22F
:4017C000042D2BD1002320241E4AD4540133142BF9D10125002414231E1C6E436F1E7B433619965D1B19F6B20134D654142CF2D10135042DEED100232025D4183C34013333
:401800002570142BF8D100235C1CE4B2002915D0D3183C331970015D231CF5E7541CE4B2002907D014266E43B218064E9155015D221CF3E71A780132D2B21A70F0BDC0467F
:40184000B00200201503002038B50024E0B2002101F04CFC002514236343064A5B19985C0135C0B201F032FC142DF4D10134042CECD138BD150300207047000038B572B6BF
:40188000094B0A4C18680022A04201D162B60AE0111C013295005D5989005D500A2AF7D19C6262B6804738BD740100207918000030B572B60023064A99008D58054CA5421B
:4018C00003D001330B2BF6D100E0885062B630BD740100207918000070B572B600230F4CDA00A218161CD26A2C36251C824201D171600DE00133152BF1D10023DA00AA1848
:40190000141CD66A064A2C34964203D12060616062B602E00133152BF0D170BD740100207918000010B50024094A0A4BA10001348B50101C191C0B2CF6D10023DA008218E0
:40194000141CD162002201332263152BF6D110BD740100207918000008B5FFF7E3FF024801F0E6FB08BDC046A919000070B500250B4CEB00E418231CE26A0A4E2C33B24233
:401980000AD05A68012A03D05A68013A5A6003E0E06AFFF78DFFE6620135152DE8D170BD740100207918000008B5FFF7DFFF00F009FF08BD0048704748020020002330B59C
:4019C000494A904204D9494A0133DBB28018F7E7002B03D03033DAB2302401E02024221C0021434B1A70434A904204D9424A0131C9B28018F7E7251C002902D03025303121
:401A0000CCB200225C703D49884204D93C490132D2B24018F7E72C1C002A02D030243032D5B200219D70374A904204D9364A0131C9B28018F7E7251C002902D03025303127
:401A4000CCB20022DC703149884204D930490132D2B24018F7E72C1C002A02D030243032D5B200211D712B4A904204D92A4A0131C9B28018F7E7251C002902D03025303116
:401A8000CCB200225C712549884204D924490132D2B24018F7E72C1C002A02D030243032D5B200219D71632803D90131C9B26438F9E7251C002902D030253031CCB2002278
:401AC000DC71092803D90132D2B20A38F9E7002A01D03032D5B20A221A7300223030C0B21D7258729A7230BDFFC99A3B003665C448020020FFE0F505001F0AFA7F969800C1
:401B0000806967FF3F420F00C0BDF0FF9F8601006079FEFF0F270000F0D8FFFFE703000018FCFFFFFEE7000008B5031C0749084A0868C3189A1A802A01DC0B6005E003F03A
:401B400009F80C2303600120404208BDD4000020D003002070B51049104B01394A1C15D000221E685C689D68A018AA4203D0B058A0500432F8E7021CDC68151AA54202D0E6
:401B8000002520C2F9E710330139E7E702F0E8FFFFF754FCFEE7C04601000000A456000008B500239A000D49032B01D80C4989580C4801338150302BF4D1FFF7B1F90022A6
:401BC000094B1A60094B1A68002A00D11A6080220121D20513680B43136008BD251B0000000F000000000020C8000020C0000020054A1368002803D0802109060B4301E055
:401C00005B005B081360704780031A408021054A08B5136809060B4313600A2001F000F808BDC0460000064010B5054C2378002B03D100F007F801232370FFF7E7FF10BDC4
:401C4000580200200C2110B500241C4A0A2013680B4313601A4B1B4A1C601B4B1A601B4B1B4A13601B4A14601B4A14601B4A13601B4B1C6000F0DEFF0A20032100F0B2FF7C
:401C800018490A2000F0A2FF1422174BFF321C60164B1C60164B1C60164B1A60164B043A1C60164BFF3A1C60154B1A70154B1C80154B1C60154B1C6010BDC04670000640D6
:401CC0000000064077080080600006400701008000030640040306401003064000020640040206400D320000C80E0640880E0640480F0640080F0640C80F0640880F0640C3
:401D00006503002074030020840300206C030020F8B5264C04222378102B44D10125244B92181B682B423ED1071C0A200E1C00F081FFFF2378001840002E02D1DB3B23705D
:401D400002E025232843237002221A4B1A4918601A4B0B601A4B1A6008260B68FF36164D3342F9D004232A6813400DD10222286810420BD128680E32013322701A1C1842BF
:401D800004D18022520001E00022131C0E60002B09D080200B4900060B685B005B080B600B6803430B60101CF8BDC046650300206400064040020640000F064017030000EC
:401DC0006800064000000640202210B5184B042019781C1C11422AD0164B19681823114200D1083B144A13601221144AFF3113680B42F9D01368DB0606D401231068184278
:401E000004D18020400003E0002000E0181C031C116010222270002B09D08021084A090613685B005B08136013680B43136010BD650300206400064068000640000F064092
:401E40000000064030B51A49021C0B7804209B062DD5184B1A600824174AFF3413682342F9D004231068034004D0602300200B70031C0FE002201568054202D060250D708A
:401E800008E01020012315680870181C1D4201D1802040001460002B09D08021074A090613685B005B08136013680B43136030BD6503002040020640000F064000000640B3
:401EC00010B5184B1A78191C930626D5164B1A68520705D4154A14680222FF321442F5D004221B6813420BD0114B0F4C1B682260002802D10F490A6011E060220A700EE0D2
:401F000080210D4A094B09061A600C4A13685B005B08136013680B43136001235B42181C10BDC04665030020C00F0640000F0640400306406800064017030000000006403D
:401F40001E4B70B51E6800F025FE0028FBD0002000F028FE0F221A4C1A4D2368934323602B685B005B082B60B3060FD5002000F019FE0A2000F074FE012000F013FE00F0F1
:401F80001DFE0028FBD00A2000F06AFE002000F009FE0A2000F064FE012080220A4B120618602B6813430F222B6023689343013A1343236000F0F6FD70BDC046640006407C
:401FC00010000140000006406800064070B5234C042223789B063ED5FF2540000540002902D12423237003E025232370243B1D431B4E1C4B3360FFF7A3FF311C1A4B1B6867
:40200000DB07FBD4194B1D6008260B68FF36144D3342F9D004232A6813400DD10222286810420BD128680E32013322701A1C184204D18022520001E00022131C0E60002B13
:4020400009D080200A4900060B685B005B080B600B6803430B60101C70BDC04665030020000F0640170300006800064040020640000006408021044A08B5136809060B4378
:40208000136000F059F808BD0000074010B5054C2378002B03D100F007F801232370FFF7E9FF10BD60020020124A134B10B51A60002301210724114A11481360114A116081
:4020C000114A026011480460114803601148016011490A60114A1360114A1360114A1360114A1360114A1360114A1360114A136010BDC0460A0000020000074040000740DD
:402100000003074048000740070000800403074010030740440007400002074004020740880E0740C80E0740480F0740080F0740C80F0740880F0740044A054B11680B4022
:40214000902109040B4313607047C04600000140FFFF0FFF10B5041C830705D1642101F0A3FA0120002906D1C821201C490001F09BFA4842484110BD0A2243045B0F534316
:402180000005000F181870470A2283029B0F53430003000F181870470A2283029B0F53430003000F181870470A22C300DB0F53430001000F18187047FA2183049B0F890015
:4021C000594310B50C1C64210F2203051B0F4B430240E3189A180A230006000F5843101810BDF8B50C1C061C081CFA21890001F05BFA0F1C081C642101F056FA0D1CFA21C1
:40220000201C890001F0CAF964210403381C01F0C5F9B60BB6033443000204430A21281C01F042FA281C0C430A2101F0B7F900012043F8BDF7B50F1CFA21061C8900101C7F
:40224000151C01F031FA0C1C081C642101F02CFA381C00910A2101F027FA381C0B040A21019301F09BF9019B07050A21301C1F4301F094F9000707430A21301C01F014FA9A
:4022800009060F43FA21281C890001F087F9000307436421201C01F081F9000207430A21009801F001FA00980F430A2101F076F900013843FEBD70B50C1C151C022901D8C2
:4022C0000C34013DC821AB082E184900281CF61801F064F964213618281C01F05FF90623584335181A2001340A21604301F056F90721281801F0D8F9002900D10731081C27
:4023000070BD0000014B03C37047C04668020020F0B585B0061C0C1CFFF74EFF00220023051C00920193324FAF4210D2381CFFF711FF002801D02F4A00E02F4A00230098F0
:40234000019980185941013700900191ECE7301CFFF72AFF294A431E5B009F5A022805D9281CFFF7F7FE431E98413F180023244D301C6F4303930297FFF70EFF4543214B51
:40238000201CEE18FFF700FF039F051C230204D5630202D50B2800D80C35201CFFF7ECFE0F220A23224061060024490F59438B180099019AC9186241131C0A1C844602982E
:4023C000039912184B41E12109016943B6185F4160460A1C3C21231C414392197B410E1C271C92197B41101C191C05B0F0BDC046B20700000085E2018033E101B4550000B6
:402400008051010080AEFEFF064B10B51B18DC7D022805D1081CFFF79DFE431E98412418201C10BDB4550000F0B5161C634A89B01F1C634B0690019200251C1CAF420DD0C6
:40244000019B361BAF410133181C0193FFF782FE002801D15A4BEFE75A4BEDE79E42EFD80123594D0493002302950393574DBB420CD0029B039CF61AA741049B01990133A9
:40248000181C0493FFF7C0FF4543ECE7029BB342EFD9301C391C4D4A002301F011F9291C039B41431C1C8E425C4165420D402A1C039BB61A9F41E122431C0793301C002392
:4024C000391C120101F0FCF80023E121041C02930E9B09016143002B0ED0002F02D13C4B9E4205D9012302930C2C05D90C3C03E0002C01D102940C3400230A1CBB4207D122
:402500001D1C96425D41181C694211400A1C031CB61A9F413C220023301C391C01F0D0F83C210023414305900A1CBB4207D11D1C96425D41181C694211400A1C031CB61A64
:402540009F410799019A0498FFF774FE069B0E9A5860029BD2059B051343201C0A211F1C01F01CF8000507430A21201C01F09CF83C1C09040C4305980A2101F00FF8000378
:4025800004430A21059801F08FF809020C43301C0A2101F089F8301C0C430A2100F0FEFF069B000104431C6007980499019AFFF782FE069B986009B0F0BDC046B20700002E
:4025C0008033E1010085E20180DE280080510100C1A8000037B5084D084CE8680025291C074B1A685B68009512184B41201CFFF71BFF20683EBDC04668020020A4030020C6
:40260000C0030020F0B50023061C89B0141C009304A80B1C321CFFF707FF012323401ED0022525403DD1049F381CFFF7A5FD061E3A2E00D8451C60480A210740281C039759
:4026400000F0ACFF0A210703281C01F02DF8039B09020F431F430497B54222D3A6E00A270F21049E7206520F7A43314052180392551C3A2203998A425B415B421D40281CAE
:40268000391C01F011F87F239E430E43281C391C00F084FF039B0001064304969D42BFD384E0042525401AD1049F381CFFF76CFD061E162E00D8451C40480A210740281CE6
:4026C000039700F06BFF0A210705281C00F0ECFF039B09040F431F430497B54266D2E3063BD4059D0827281CFFF756FD061C281C3C420AD0FFF758FD071C281CFFF75CFD52
:40270000011C381CFFF780FE0BE0FFF755FD0390281CFFF749FD0399FFF776FE3B1CA34304D0F71D874205D93F1A03E00127864200D2F7192149381C0D400A21039500F0D0
:402740002DFF0A210505381C00F0AEFF039B09040D431D430595B74228D2A3061BD4059F0125381CFFF720FD061E0B2E00D8451913480A210740281C039700F00FFF0A21EF
:402780000707281C00F090FF039B09060F431F430597B5420AD2630608D4059C201CFFF70BFD411C201CFFF71CFD059005980499FFF7AEFD09B0F0BDFF80FFFFFFFFC0FFA0
:4027C000FFFFFFE0F8B51D4C236922689B182361226963689A4230D301220023184D2868696812184B412A606B6000239C466146E06823612A686B6812184B41A669E7695B
:40280000B2421AD1BB4218D104230E4A0E4ED1680B43D3600D4B32681A60A368634500D098472A686B680021E068801859413268D2B2FFF7E7FEA061E161F8BD68020020F5
:40284000C0030020A4030020D8000020B4030020F0B50D1C00219D4B8DB01A685B680590009108A8FFF7E0FD089B0A20039370230F21039A039C1A40120942430C4012190A
:40288000059C27683B401B09434339405E189642A441012364422B4000D1E3E0301C0A2100F07CFE0A210301301C069300F0FCFE039807910226FFF75FFC2E40049005D1EB
:4028C000002C0DD03A2809D8461C03E0381CFFF753FC061C049B00249E4202D2012400E0049E079A069B0A211343301C049300F055FE049B000303430A21301C049300F09F
:40290000D3FE049B09020B4303980493FFF73CFC042303902B4006D1061C002C11D016280DD8461C06E0381CFFF72EFC061C3B0200D59DE0039B00249E4201D301E01E1C22
:4029400001246349049B301C0B400A21039300F025FE0A210705301C00F0A6FE039B0904099E0F433B43301C0693FFF715FC059B071C5B68181C0393FFF70EFC031CEA06F8
:4029800028D42B0716D5301CFFF70EFC041C301CFFF712FC011C201CFFF736FD059B0A9A9B689A4200D907339A1AD319834211D91B1A0FE0002C11D0301CFFF7FDFB041CB0
:4029C000301CFFF7F1FB211CFFF71EFD0123874200D2FB18BB42A4411F1C6442381C0A2100F062FE381C0B040A21049300F0D6FD049B00050343301C0493FFF7D5FB202339
:402A00001D400595059B071C324D002B07D1002C0FD00B280AD8441C844208D33BE00398FFF7C2FB041EBC4201D326E00124271C0124049B0A212B40381C049300F0AEFD8E
:402A40000A210507381C00F02FFE049B09060D43301C1D43FFF7B0FB059B0119002B2DD0039828E01E1C002C00D017E7161C15E77B0200D45EE70C365CE70A2100F08EFDBB
:402A80000A210607201C00F00FFE049F2F400D0635433D43E4E7049B201C2B400A211D1C00F002FE201C0F060A2100F077FD00070743301C3D43FFF77FFB011C281CFFF75F
:402AC00090FB0699FFF724FC0DB0F0BDC0030020FFFFC0FFFFFFFFE0F7B5061C081C0C1CFFF75AFB071C201CFFF75EFB0090201CFFF762FB311C0190201CFFF709FC0B4B12
:402B00000B4D18605960019A0099381C2E606C60FFF7D1FB074BA86019680748C9B2FFF797FE064B9861D961F7BDC046C0030020A4030020D8000020940300206802002017
:402B4000012208B5074B08491A700023CB6007490748CB6007490B70074B08491A60FFF7BBFF08BD9003002068020020A403002027492300B8030020B40300201520221122
:402B800008B5034B1B78002B01D1FFF7D9FF08BD90030020024B18688007C00F7047C04604040440012304490A689A43D2B2034013430B607047C04600040440024B1868EE
:402BC000012318407047C046040404401F2800D901BE034B8000C318186819607047C0464000002038B5041C0D1E032D00D901BE1F2C00D901BE00F0BDFCA308074A9B008F
:402C00009B180322144094400634A240A540196891432943196000F0B1FC38BD00E400E01F2318401E3B8340181C014B1860704700E100E01F2318401E3B8340181C014BA7
:402C40001860704780E100E0034A044913689BB20B4313607047C0460CED00E00400FA0508B5034B1B7A584300F07AFC08BDC046DC000020F0B5051C87B000F07BFCEB1E53
:402C8000049003932D2B5CD8314B1B789D4204D8304B1C78304BE4B21EE0304B1B789D4204D82F4B1C782F4BE4B215E02E4B1B789D4204D82D4B1C782D4BE4B20CE02D4B55
:402CC0001B789D4204D82C4B1C782C4BE4B203E02B4B1C782B4BE4B21B78039ADBB20193294B2A4F9A5C059302922F2A04D92A2D02D919263E6008E03F233E681E40029BE5
:402D0000B34205D2214B029A1A60052000F028FC1C4B1F4AED182B780520DBB213601D4B019A1C601C4B1A60FFF79AFF029BB34208D9059B039A05209B5C3B6000F010FC1D
:402D400000E001BE049800F019FC07B0F0BDC046C0F1FF0FC1F1FF0FC2F1FF0FC3F1FF0FC4F1FF0FC5F1FF0FC6F1FF0FC7F1FF0FC8F1FF0FC9F1FF0FCAF1FF0FCBF1FF0F73
:402D8000CCF1FF0FCDF1FF0FD85500002CFF0B4028FF0B401CFF0B4020FF0B4008B500F0E9FBC021034A090213680B43136000F0E5FB08BD00010B4010B5802400F0DAFB82
:402DC0000749084B0A68E4011A4022430A600A6813408022120213430B6000F0CFFB10BD00010B40FF3FFFFF70B5051C00F0C2FB0E4B041C1A68C0231B02134011D10C48EE
:402E00000C490540281C0E680B4A3240104308600A68012B01D1FFF7C1FF201C00F0AEFB70BDFFF7C9FF0123E9E7C04600010B400404040010020B40FBFBFBFF042238B524
:402E4000224C2368134213D021490B6813420CD0204B9D6908681540A8430860996991439961DB68002B00D098470420FFF7BCFF80232268DB001A4215D015490A681A4253
:402E80000DD0144A956908682B40984308609169114B0B4093611369002B00D098478020C000FFF7A1FF80232268DB021A420CD0074A12681A4204D0064B5B69002B00D08D
:402EC00098478020C002FFF78FFF38BD10020B40EC00002088020020FFFBFFFF8023024A11780B431370704772000F40034B1B78DB0602D5024B1B78F8E7704762000F408C
:402F000052000F403F2110B5114A124C13788B4336390B4313700122237813432370FF230D4A13700D4A13700D4A13700A220D4B1A7000220C4B1A7000F01CFB102223783D
:402F40001343237000F01AFBFFF7D0FF10BDC04672000F4092000F4002000F4042000F4022000F4032000F4082000F4010B5054C2378002B03D1FFF7C5FF01232370FFF76D
:402F8000ADFF10BDA4020020014B18707047C04622000F40602238B51025094C28432368934323602368513A934323602368184320600120FFF754FE2368AB43236038BD59
:402FC00000020440202270B5061C0E4C002023681025134323602368921893432360FFF73FFE0F22301C23682843934323602368184320600120FFF733FE2368AB432360B8
:4030000070BDC04600020440F7B57F22244C254D2368CA27934323602B68234A1B0B1B03134320222B6023687F0093432360236892181343236010260020FFF711FE236855
:40304000012033432360FFF70BFE184B00201B6801932368B3432360FFF702FE2368012033432360FFF7FCFD2368B3432360019B1B0703D40A20FFF7F3FD02E0013F002F15
:40308000D9D1402223689343236023683F32934323602B68064A1B0B1B0313432B60F7BD00020440080204404902000004020440B60D000010B5041CFFF7A6FF2009FFF784
:4030C00081FF0F202040FFF77DFF10BD08B5FFF7F1FF08BD10B5041CFFF796FF2009FFF759FF0F202040FFF755FF10BD08B503280DD800F049FA02040608803904E0403963
:4031000002E06C3900E02C39C8B2FFF7E3FF08BD10B5041C00F02EFAC021044AA40113688B432343136000F029FA10BD00E400E010B50124044B1C60044B18640320FFF77C
:40314000E7FF034B1C6010BD80E100E00000002000E100E08022084B92041A600C22074B1A60074B0B3A1A60FA22064B92001A600022054B1A6070470001054024010540D4
:4031800038010540140105400801054038B50D1C041CAC4000F0EEF9024B1C6000F0EEF938BDC0460800054010B5012400F0E2F9054A13682343136000F0E0F9201C182172
:4031C000FFF7E4FF10BDC0460000054010B5054C2378002B03D1FFF7BDFF01232370FFF7E3FF10BDA5020020024B1868012318407047C04604030440402208B5024B1A6022
:40320000FFF722FD08BDC046C0000020F8B5AD4B1B68002B00D09847AB4B1B68DB0702D50022AA4B1A60AA4B1A78920601D4002123E0A84A00211068C00506D5C024A648F4
:40324000A40001882143018001211268D20706D59020A14980000A8802430A8001E00029E5D0012102201A789B4C0A40821A2088024392B2228000221A7018781022800648
:4032800000D4F6E0934C206810420CD09349924C0A600121187801400220411A2088014389B22180DAE0187800071BD502202568054209D0894A8849106088200A88800095
:4032C00002430A8001210DE01878C00702D525221A7007E02420187081480068002801D08048026004251A782A4200D19BE001201A78024243D008267B4A1468344223D095
:403300007A4A7B4C156827687A4AEF1B0F2512682A40BA1AB24207D8002A06D17649774A0D682A400A60011C321C754D20682D68013A2818734D2D68EDB2057020680130B8
:403340002060002AF1D117E012682A4214D0684A6B4E1468366834196A4E3668F6B226701468013414601468604A1268944202D2654A156000E0011C6448654A49E0022282
:403380002468144220D05549624C0A6062490D320E680D68216832408A1AE90B0840101A2060842021685D4A800011604A490A88024380200A805A4A4002116801431160BE
:4033C0001068584901402CE0574A1068C00622D5564A1468504A424D10680F2210404D4A08280DD016682868864209D21068504D20180078C0B22860106801301060E9E756
:4034000010682A68904202D14020364A10604948494A106007E01268520604D53D4A11683E4A116001E000294AD03349334A086802400A60002241490A602A490A60404AB8
:40344000127892070CD50122197823480A400A218A1A01880A4392B2028060221A702FE0384B1A681823920600D4083B264A136026E01978114023D1334C2068400040081C
:4034800020601A701C4B314A186802401A6018682F4A02401A60294B1C4A1960114B1960254B1A60234A1A4B1A602A4A2A4B1A602A4A0A4B1A60802223681206134323600D
:4034C000F8BDC0465C0200208C0E0640880E0640650300200C0F064074030020000F064070030020880F0640CC0F064080030020840300200803064060000640FFFEFFFF35
:40350000780300204003064068000640ED0F0000C00F064068030020080206406C03002004020640FFFFFEFF8C0F06408803002040020640F3070000800F0640C80F0640F7
:403540007C0300206400064000000640FF5FFFFFFFFCFFFFFF0F0000400F0640170300000230800804D0C0460138FDD1C046C046C0467047EFF3108072B6704780F31088EA
:403580007047C046C046C04602B4714649084900095C49008E4402BC7047C046002243088B4274D303098B425FD3030A8B4244D3030B8B4228D3030C8B420DD3FF22090205
:4035C00012BA030C8B4202D31212090265D0030B8B4219D300E0090AC30B8B4201D3CB03C01A5241830B8B4201D38B03C01A5241430B8B4201D34B03C01A5241030B8B42D7
:4036000001D30B03C01A5241C30A8B4201D3CB02C01A5241830A8B4201D38B02C01A5241430A8B4201D34B02C01A5241030A8B4201D30B02C01A5241CDD2C3098B4201D38F
:40364000CB01C01A524183098B4201D38B01C01A524143098B4201D34B01C01A524103098B4201D30B01C01A5241C3088B4201D3CB00C01A524183088B4201D38B00C01AEA
:40368000524143088B4201D34B00C01A5241411A00D20146524110467047FFE701B5002000F00CF802BDC0460029F7D003B5FFF775FF0EBC4243891A1847C0467047C04624
:4036C000002B11D1002A0FD1002900D1002802D00021C943081C07B4024802A14018029003BDC046D9FFFFFF03B4684601B5029800F040F8019B9E4602B00CBC7047C046AC
:4037000038B500220C4B041C0D1C00F007FF002804D1201C291C00F05BFE38BD064B0022201C291C00F0DAFA00F052FE80231B069C466044F1E7C0460000E041F0B583B00F
:40374000161C1F1C0090019100F03AFF041C0D1C221C2B1C301C391C00F008FF009A019B121A8B410899201C0A604B60291C03B0F0BDC046F0B5141C83B01D1C00900191FD
:4037800001F016F8221C2B1C061C0F1C00F0EEFE009A019B121A8B410899301C0A604B60391C03B0F0BDC046F0B55F4656464D464446F0B4051C061C080387B099464F0017
:4037C000030BCC0F92469B467F0D019467D06C4B9F4236D080205B4640031843C0006B0F1843684B83469C4600239846EE00674400934B4649461D03C90F5B0052462D0BEF
:403800005B0D894600D16EE05D498B4264D080205C4940038C4600210543ED00500F0543D20063444846FF187B1C9A46009B604002900B430F2B00D9ACE053489B00C35894
:403840009F465B461D4300D082E00823009300239B46023300269846CBE7029B01934346022B59D1012400250026019B1C40444B00212D030A0D12052D0B1543434A1B05BF
:4038800015401D436D00E4076D082543301C291C07B03CBC90469946A246AB46F0BD2B434ED05B46002B00D185E1584600F040FE021C2823291C9B1A161C5846D940083EB6
:4038C000B0400B1CB54003439B462E1C0023304F0093BF1A98468CE7514629432ED10025002202219EE75146294323D0002D00D154E1281C00F01CFE031C28215046C91AA3
:403900001A1CC8405146083A914095400A1C05431F480021C31A85E7032B00D1C2E1012B00D06DE14446019B00251C40E4B2002300269DE700250022012173E7032171E756
:403940000423009300239B4601330026984650E70C230093093B98464BE7802500242D030026074B84E74B46AB46161C0193884675E7029BAB46161C019388466FE7C04638
:40398000FF07000001FCFFFF08560000FFFF0F800DFCFFFF330C3604360C9C46331C140C1204120C53439846634653439946634663430193331C41466343090C4B445B18CC
:4039C000994505D9802040028146019949440191190C039141460904090C1B045B1804932B0C9846331C2D04290C4B43604600934346654658435E43009B4D431B0C9946EC
:403A0000AE194E448446B54203D980235B029946CC44350C2B1C0398634484460593009B36041B041B0CF3189C446046039058460504060C280C84465043351C814660462E
:403A4000654344434846000C8346724314195C44A24203D98022520293465D44220CAD184A461204120C24044046A41862464A437143464360460096464670438046100C12
:403A800084468844E044414505D9802149028C46009961440091019803998446614499429B415B4299460598434684461204120C1B049B1863449C46AB4683429B414046ED
:403AC0000A19CC44A2428941E344CC45B6415C46000C8046494276425B426418334398448C428941AB459B4149425B4219430D1C009B4544EE187602E50D2E43B346049BE6
:403B000056021E43731E9E415B46D20D324366021643DB010AD50123334076081E435B46DB071E435B465B089B465746634BFB18002B5ADD720709D00F223240042A05D0F4
:403B4000321DB242B6417642B344161C5A46D20106D55A465A4B1A4080239346DB00FB18584A934234DD0124029B00251C400026554B7DE680205B460003034208D0054237
:403B800006D105432D032D0B4C46161C4E4B6FE65D4605432D032D0B4B4B69E6504600F0C7FC031C2033272B00DCA6E65546083885400022ACE6281C00F0BAFC021C203271
:403BC000272A00DC75E6083885400026AB467DE65A46F608520716435A4601245502029A5B052D0B5B0D144042E6384DED1B382D0ADD0124029B00251C400026002337E6B8
:403C0000019B5746029391E71F2D25DC304B321C9C466744BE405B46BB40371CEA407E1EB74113433B431E1C5B46EB401D1C730709D00F233340042B05D0331DB342B641A5
:403C40007642AD191E1C2B0220D50124029B00251C40002601230BE65A461E4BDB1BDA40131C202D1CD01C4A94465A466744BA40171C3E43721E96411E43072300253340A8
:403C800007D00F2300253340042BD6D16B076D022D0B0124F6081E43029B1C400023E7E50027E6E780255B4601242D031D43019B2D0323401C1C2D0B034BD9E5FF0300006C
:403CC000FFFFFFFEFE070000FF07000002FCFFFF1E040000E2FBFFFF3E040000F0B54D4644465F465646F0B40E1C111C3203520A470F1743C5001A035800DB0F9946520AE5
:403D00004B0F83B01A43CB000193CF4B7400F60F640DB046400D984200D1E8E00123494659400B1C9E4200D1B1E0261A002E00DC1CE1002842D1131C01990B4300D0E6E09C
:403D40006B0700D18EE00F232B40042B00D189E02A1DAA42AD418023012641466D427F191B043B400E40151C002B00D183E0B64B01349C4200D116E13A1CB44BED081A40DB
:403D80005007640552020543120B640D002112030B0D1B056405120B1A436308AC4CF60714401C43640064083443281C211C03B03CBC90469946A246AB46F0BDA24B9C423C
:403DC000BED080231B041A43382E00DD03E11F2E00DD3FE12020831B9946131C49468B409C46019B6046F34003430198F2408840011C481E81410B43EB1A9D4280411D1CBE
:403E0000BA1A4042171A3B0200D4A8E07A02560A002E00D1CAE0301C00F08AFB031C083B1F2B00DDCBE02822291C121AD1409E400A1C9D4032439C4200DDC8E01C1B671CA9
:403E40001F2F00DDEDE01F23291C1C1B131CA540A340F9406C1EA541FA4019430D43171C00246DE78023012642461B043B401640002B00D07BE7744BED0878070543FA083F
:403E80009C423BD012036405120B640D7EE7231A9A46002B00DCA5E0002844D06A48844200D14DE78020000402435346382B00DC1CE1019B1A43511E8A41D1B2002249194E
:403EC000A94280410D1CD219404217183B0246D55D4B01349C4200D169E101205B4A6B083A4028401843D5070543570828E7131C01990B4300D111E74B4613E72B1C134313
:403F000051D080231B031A431203120B3EE7013E002E00D080E0691A8D429B41BA1A5B42D71A0D1C6FE7101C019B184300D107E701235B429C46E2445346002B00D002E11D
:403F4000019BD2195919A9429B415B42D7180D1CBCE76346034300D128E1071C65466B0700D0F0E6012643461E4084E7002E00D081E0601C4005400D012800DC07E101990D
:403F8000681A84466545B641B81A7642861B300200D4A1E08C464D1BAC458941D21B4942561A984634E700220025EFE6281C00F0BFFA2030031C083B1F2B00DC33E7021C73
:403FC000283A95402A1C00259C4200DC36E71F4FE41A1740B4E6019B1A43511E8A41D3B2002209E7002B00D001E1601C43055B0D012B00DCB0E0144B984200D11EE1019BDB
:40400000D2195919A9429B415B42D2184908D5070D435708041C93E60B4B9C4200D0D3E68EE6211C131C1F39CB40191C202F00D18EE03F231C1BA24015436A1E9541002745
:404040000D4300248BE7C046FF070000FFFF7FFFFFFF0F80331C101C203BD840202E79D040239B1B9A40131C019A1343591E8B4100220343C0E6002C53D0C74CA04200D147
:40408000B0E0802471428946240427434946382900DDCDE01F2900DD59E120243E1C611A8E408A46B04649462E1CCE405146B4468D4064464646494626436C1EA541CF4040
:4040C00035430199D71B8C464D1BAC4592415242BF1A041C984696E663466546334300D096E60026002700240025C4E61F2B61DC2020C31A9B46131C59468B4051469946ED
:40410000019BCB409C464B46604603439C465B46019999406346481E814119435346DA40CDE63C1C2C435DD0F1438946002955D10199D21B8C464D1BAC4589414942571A32
:40414000041C98465FE69448844200D0ADE6F7E5002271E7002387E73B1C2B43002C00D0DAE0002B00D113E1131C01990B4300D1E6E54919A9429B41D2195B42D7183B0215
:4041800000D421E1854B0D1C1F40041CD8E5381C2843002C40D1002800D083E0101C0199084303D0171C0D1C9846C9E500260027002560E65046131C2038C340181C53462C
:4041C000202B00D1C1E0402351465B1A9A40019911434A1E91410022014370E66E4CA04200D053E7171C019D041C9846A8E5002C28D13C1C2C4300D18AE0DB439A46002B83
:4042000000D082E0019BD2199C4665449D42894149425718041C59E600285BD1101C0199084300D1A4E0171C0D1C98465A4C87E53D436F1EBD410027EDB242E7041C0027F1
:40424000002518E6544CA04262D0534680245B429A46240427435346382B00DD8EE01F2B00DD9DE02024E31A9B463B1C59468B40514699462B1CCB409C464B466446234302
:404280009C465B469D4063466C1EA541CF401D43019BBF189C4665449D4292415242BF18041C13E6101C0199084300D148E5681A844685428041BE1A4042301A060200D47F
:4042C00047E68C464D1BAC458941D21B4942571A984635E5101C0199084334D080247807ED08FF0824032843274208D0D608264205D1C90852070A43101C371C9846FF00C5
:40430000420F1743C500244C1AE5234CA042A2D1171C019D041C13E5002B35D0131C01990B4310D080247807ED08FF08240328432742E4D0D3082342E1D1C90852070A4393
:40434000101C1F1CDBE7144CFAE400223FE74C463E1C203CE6404946341C202932D04026761AB7403D436F1EBD4100272543A8E680270026FF03084C00257CE53D436F1E2B
:40438000BD410027EDB283E7171C019D024CD7E4171C019DD4E4C046FF070000FFFF7FFF54463B1C203CE3401C1C5346202B0DD0402351465B1A9F403D436F1EBD410027FB
:4043C000254365E70027CDE70D1CC8E50027F3E70B0330B5134C1A0B4B00051C5B0DC90F0020A34210DD104883420EDC80200F4C40030243E41A1F2C0ADD0D48C31ADA403C
:40440000131C48424340581830BD0A4BC818FBE7281CE040084CA44663449A40131C0343EFE7C046FE0300001D0400003304000013040000FFFFFF7FEDFBFFFF38B5041E77
:4044400016D0C50F00D04442201C00F071F8174B1B1A0A2821DC021C211C153291400A1C0B21081AC4405B052403240B5B0D03E000250023002400220021101C24030A0DCC
:404480001205240B14430A4A1B0514401C436400ED0764082C43211C38BD0B3884405B052403240B5B0D0022E6E7C0461E040000FFFF0F808446101C62468C46191C6346BC
:4044C00000E0C0461FB500F0D3FA002801D40021C8421FBD10B500F017FA4042013010BD10B500F0C5FA002801DB002010BD012010BDC04610B500F0BBFA002801DD002012
:4045000010BD012010BDC04610B500F041FA002801DC002010BD012010BDC04610B500F037FA002801DA002010BD012010BDC0461C2101231B04984201D3000C10391B0A72
:40454000984201D3000A08391B09984201D30009043902A2105C40187047C04604030202010101010000000000000000F0B54F46464605042D0C2C1CC0B41704160C3F0CAA
:404580009946030C7C4375435F4373437D19260CAD199C46AF4203D980235B029846C4444B465143434324042E0C240C2D0466442C1959188919201C0CBC90469946F0BD45
:4045C000F0B544465F4656464D46F0B41C1C85B0002900DAA9E00F1C0021061C8846101C191C002C00DA97E0341C3D1C82468946B94273D870D04946504600F09FFA8346C4
:40460000391C301C00F09AFA5B46181A031C8346203B9C4600D59CE00023002251460092019363469940019151468140019B0091BB4200D983E000D17EE0009A019B341C83
:404640003D1CA41A9D416346002B00DA9AE0002600270296039701369E400396012686400296002800D171E00099019AD30799464B464E081E435708002301220CE0AF426A
:4046800001D1A6420AD8A41BBD4124196D410138A4185D41002806D0AF42F0D9013824196D410028F8D12022029E039F5B46524236196F4199185AD4281CC8402C1C5B468A
:4046C000DC40002968DB041C8C40231C59468840021CB61A9F4103E0B0428CD90026002741464B1E9941002300910193009A019B002554429D41331C6340181C3B1C6B4042
:40470000191C009B019CC018614105B03CBC90469946A246AB46F0BD4346DB430C1C9846131C00215842A1415EE7002746428F4101214942884652E7B14200D87DE7002664
:40474000002702960397002800D08DE7029E039FC6E720215346091ACB400022191C0023009201934B4683400B4301935CE75A4620239B1A2A1C9A40201C131C5A46D04091
:4047800018439BE720260027331A0026029603970127DF40039761E75B4620215D46C91A031CAC40CB40191C231C0B438EE7C046F0B545464E465746E0B4041C82B00D1CB6
:4047C000914698468B4262D85FD04146484600F0B5F9291C061C201C00F0B0F92023311A5B428A46C81865D44B4683401F1C4B468B401E1CAF4258D855D0A41BBD4100287B
:4048000000DA77E0002200230092019301328240019201238B40009300293CD0FB079846404672087B080243012600270CE0AB4201D1A2420AD8A41A9D4124196D41013975
:40484000A4197D41002906D0AB42F0D9013924196D410029F8D120220098019953465242001969419E183AD42F1CF7405346DD40002E29DB3C1CB440231C5446A7403A1CFD
:40488000801A99410090019105E082429DD900230024009301940098019902B01CBC90469946A246F0BDA342A7D90022002300920193B1E720224B46521AD3401A1C434655
:4048C0008B401F1C174392E7534620245646E41A3B1CB540E3401C1C2B1C2343CDE7524620239B1A2A1C9A40271C131C5246D7401F43BBE720230022581A0023009201936B
:404900000132C240019284E7F0B55F464D4644465646F0B41F035C00DB0F99461B4B0E034D00C90F8446360B6D0D8B4690463F0B640D9D420CD0154B9C4210D00123A542EF
:4049400014D0181C3CBC90469946A246AB46F0BD311C01230143F4D10C4B9C42EED13A430123002AEDD10123A542EAD1BE42E8D1C445E6D1CB4506D0002DE2D13043031C5E
:40498000581E8341DDE70023DBE7C046FF070000F0B5574645464E46E0B40F034E00C90F8A4632491D035C0084463F0B760D90462D0B640DDB0F8E420FD08C4239D0002E60
:4049C00010D13843414241418946002C27D12A4325D1002000290ED108E0391C01432ED1B44226D0002C0BD09A450DD05346594201231943081C1CBC90469946A246F0BDAF
:404A00002A43F3D09A45F1D1A642EFDC1ADA504641424841012341421943081CEBE74A46002AE1D058425841012241421143081CE1E7291C114302D1002EC2D0D4E70220D6
:404A40004042D8E7AF42D1D809D00020AF42D2D2504641424841012340421843CBE7C445C4D80020C445F3D3C5E7C046FF070000F0B55F464D46444656468046F0B4061C9D
:404A80000803000B84462C484C001F035D00C90F640D8B4691463F0B6D0DDB0F844212D0854225D0002C14D161460E4370424641002D35D0002E21D0584258410121434267
:404AC0000B43181C0EE06146022031430AD1A5420ED0002D12D13A4310D15B46594201231943081C3CBC90469946A246AB46F0BD391C02201143F5D1002CD5D09B45ECD1E9
:404B0000AC42EADC05DBBC45E7D80FD00020BC45E8D2584641424841414201200843E1E73A43C7D10020002EDCD1D6E7C845D4D80020C845EDD3D5E7FF07000010B50029E3
:404B400003D1FFF7F5FC203002E0081CFFF7F0FC10BDC046014B18687047C046500100200E4B70B500251E1C0D4CE41AA410A54204D0AB00F35898470135F8E700F080FD7B
:404B8000084B00251E1C084CE41AA410A54204D0AB00F35898470135F8E770BD8C5600008C5600008C56000094560000002310B5934203D0CC5CC4540133F9E710BD031C0B
:404BC0008218934202D019700133FAE7704700000EB410B59DB002A9029008610B48822488604861012040421FABC881084804CBA400006801938C8100F08EF80023029A64
:404C000013701DB010BC08BC03B01847FFFFFF7F50010020021C10B51378002B01D00132FAE7CC5CD4540133002CFAD110BD031C10B51C78002C0AD00133FAE70C781C702C
:404C4000002C07D0002A00D15A7001330131013A541CF3D110BD0000F0B58E6885B0071C0C1C03920193B34245D390238A89DB001A423DD003250969236801985B1A0293A7
:404C800063695D43EB0F5D19029B6D1001331B189D4200D21D1C381C53050FD5291C00F01DFB061E13D0029A2169FFF77FFFA289184B134080221343A38111E02A1C00F00B
:404CC00065FB061E0CD1381C216900F0C1FA0C23402201203B60A38940421343A38117E0029B2661F61826606561019EED1AA560019BB34200D2019E321C2068039900F0D1
:404D000092FA0020A3689B1BA36023689E19266005B0F0BD7FFBFFFFF0B59FB0029005938B890E1C171C1B0610D50B69002B0DD1402100F0D3FA30603061002804D10C23E4
:404D4000029A01381360D0E040237361002306AD6B6120336B761033AB763C1C2378002B03D1E31B049312D003E0252BF9D00134F4E7049B0298311C3A1CFFF76DFF431CB8
:404D800000D1ACE06A69049B944663446B612378002B00D1A3E00122002352426A6002A95432521801342B60EB60AB601370AB654F4F2178381C052200F02AFA002808D00F
:404DC000C01B01278740381C2B68013418432860EEE72B68DA0604D55322202102A8121811701A0704D553222B2102A81218117022782A2A01D0099B0EE0059A111D126816
:404E00000591002A01DB099204E05242EA60022213432B60013409E02278303A092A04D80A214B4301349B18F6E7099323782E2B18D163782A2B09D1059B02341A1D1B68B2
:404E40000592002B0DDA01235B420AE0002301342278303A092A04D80A214B4301349B18F6E70793234F2178381C032200F0D0F9002807D0C01B40278740381C2B680134FA
:404E80001843286021781C480622671C297600F0BFF9002812D0194B002B06D10722059B073393430833059314E005AB00930298291C321C124B00E000BF07E005AB00937A
:404EC0000298291C321C0E4B00F08AF80390039B013304D06B69039A9B186B613DE7B3890B985B0601D5012040421FB0F0BDC0464A56000050560000545600000000000042
:404F0000594C0000F7B5171C01930A698B6800900C1C934200DA131C221C3B6043321278002A01D001333B6023689B0602D53B6802333B60062523681D401ED0231C43338F
:404F40001B785A1E9341226892061CD53020E1184031C870211C5A1C45310978A21840320233D1700FE0221C0123009801991932089EB047431C0ED00135E3683A689B1A81
:404F80009D42F0DBDAE7221C009801994332089DA847431C02D10120404220E006232068E1683A6803400025042B03D18D1AEB43DB171D40A3682269934201DD9B1AED180A
:404FC0000027AF420ADA221C0123009801991A32089EB047431CDED00137F2E70020FEBDF0B58BB006920A1C43320793059004920A7E0C1C109B6E2A00D1A8E011D8632AA5
:4050000022D009D8002A00D1B2E0582A00D0C2E045310A707C4A4FE0642A1DD0692A1BD0B9E0732A00D1A7E009D86F2A29D0702A00D0B0E0202209680A43226037E0752A0B
:405040001FD0782A33D0A6E00E1C1A684236111D196013683370A1E021681A68080606D4490604D5111D19600023D55E02E0111D19601568002D3BDA2D23049A6D4213702C
:4050800036E021681A68080606D4490604D51568111D1960ADB202E0111D196015685A4B227E03930A276F2A1DD108271BE0221C782145321170554A19680392081D226846
:4050C00018600D68100602D4500600D5ADB2D30702D520231A4322601027002D03D1202322689A432260231C002243331A7002E00A27454B03936368A360002B03DB04227F
:40510000216891432160002D02D1049E002B0ED0049E281C391CFEF7C7FA039B013E5B5C281C3370391CFEF739FA051EF1D1082F09D12368DB0706D563682269934202DCB6
:405140003023013E3370049B9B1B23612BE009681A68080607D4490605D5111D19601368A28A1A8004E0111D1960136862691A600023049E236116E01A68111D19601668F8
:405180000021301C626800F043F8002801D0801B6060636803E0261C42363270012323610023049A1370079B05980093211C069B09AAFFF7A7FE431C02D10120404221E06F
:4051C000236905980699321C079DA847431CF4D023689B0705D4099BE068984212DA181C10E00025E368099A9B1A9D42F3DA221C0123059806991932079EB047431CDCD003
:405200000135EFE70BB0F0BD5B5600006C560000C9B28218904204D003788B4202D00130F8E70020704710B5814208D28B18984205D29B1A013A09D3995C8154FAE700237B
:40524000934203D0CC5CC4540133F9E710BD000030B500293ED004390B68002B00DAC9181D4A1368141C002B02D14B60116031E099420DD208680A189A4203D11368C31824
:405280000B6053684B60216024E08A4203D8131C5A68002AF9D11D685C198C420BD10968691858181960904214D110685268091819605A600EE08C4202D90C23036009E03E
:4052C00008680C18944203D114685268001908604A60596030BDC046AC020020032370B5CC1C9C430834051C0C2C01D20C2405E0002C03DA0C2300202B6042E08C42F9D367
:40530000204A1368101C191C002913D00A68121B0DD40B2A02D90A608B181FE08B4202D15A6802601BE04A685A600B1C17E00B1C4968E9E7144E3368002B03D1281C00F05E
:405340004BF83060281C211C00F046F8031C421CD0D00322C61C964386420AD11C60181C07210B301A1D8843821A0AD05142995007E0311A281C00F02FF8431CBAD0331C3F
:40538000ECE770BDAC020020A8020020F8B5061C0C1C151C002904D1111CFFF79FFF041C18E0002A03D1FFF753FF2C1C12E000F025F8A8420ED2301C291CFFF78FFF071EC5
:4053C00007D0211C2A1CFFF7F1FB301C211CFFF73FFF3C1C201CF8BD38B50023064C051C081C2360FCF7A0FB431C03D12368002B00D02B6038BDC046C80300200B1F1A68DD
:40540000101F002A04DA891804390B68D01804387047000000000000A8F1FF7F01000000424C455F5374617475733A2000000000000000005556204C616D703A2000000032
:4054400000000000000000004F53205374617274002020202020202020202020202530326C753A2530326C753A2530326C75004F4E004F70746963204572726F72004F70AB
:40548000746963204F4B00446576696365204F50543330303120454E004272696768746E6573733A20000000000000000000000000004C78004F5054204572726F72205252
:4054C0006561640001000F4032320F4023330F4006400F400D410F4002600F40820F0A040B0E0C011A071D0827032E082F01300231083201330234083501360437043F1053
:405500004020410545D54612480F49FF4AFF4BFF4DA04F04501852805407580459045A045B045C995D995F01604062C06440654066C068C06AC06CC06EC0B001BE01D80462
:40554000DF01044005100F0817401B011C401D701E201F20268027A82E802F2036803F2045204F89568057505E205F897740832085408B01C0C0C240C480CA50CC10CE2006
:40558000D020D210D6F0E2804120432057806F20D440DA8021205C016408800184088B80A520A780C810D680D880E280E61002011101000000001F003B005A007800970095
:4055C000B500D400F300110130014E011F1C1F1E1F1E1F1F1E1F1E1F030405060708090A0B0C0E0F101112131415161718191B1C1D1E1F2021222325262728292A2B2E2F6F
:405600003031323334350000943900007239000072390000663900005A3800005A3800005A390000663900005A3800005A3900005A380000663900005E3800005E380000A1
:405640005E380000743B00004300232D302B2000686C4C006566674546470030313233343536373839414243444546003031323334353637383961626364656600000000AF
:40568000F8B5C046F8BC08BC9E46704799110000A11B0000F8B5C046F8BC08BC9E46704771110000B8560000D000002088000000780200000000000000000000D003002083
:4056C000FF0000000000E02EC05D00001800000000366E01040404000000000000000000000000000000000000000000000000000000000000000000485600000000000019
:405700000000000000000000000000000000000000000000000000000000000000000000000000000000000000000000000000000000000000000000F00000200000000059
:405740000000000000000000000000000000000000000000000000000000000000000000000000000000000000000000000000000000000000000000000000000000000029
:4057800000000000000000000000000000000000000000000000000000000000000000000000000000000000000000000000000000000000000000000000000000000000E9
:4057C00000000000000000000000000000000000000000000000000000000000000000000000000000000000000000000000000000000000000000000000000000000000A9
:405800000000000000000000000000000000000000000000000000000000000000000000000000000000000000000000000000000000000000000000000000000000000068
:407FC00023110F00001D0000008048000000000000000000000000000000000000000000000000000000000000000000000000000000000000000000000000000000000059
:0200000490303A
:020000002FDAF5
:0200000490402A
:200000000000000000000000000000000000000000000000000000000000000000000000E0
:0200000490501A
:0C000000000204B61193110104D2416DFE
:0200000490600A
:0100000001FE
:00000001FF