:4000000000100020110000008D0100008D01000008B500F093F900F0BBF8000010B572B68024E400221C0021264800F000FF221C0021254800F0FBFE9923EE21234A1B044A
:400040001360234A0902116002213C20214A224C1360224A1360224A13780B43214913700B788343283803430B70162113780C300B431370C4221C4B920218601B4B1A60D6
:400080001B4B1C4A18601C4B18601C4B1A6080222368D2021343236000F002FD184A194B1A601022184B1A608022184B12061A6080231B032360164A164B1A600022164B8B
:4000C0001A6010BD00300F4000400F40000001400C00014000500F4000010B4030500F4000700F4001700F40000004400800044018000440800D03000003044008030440D2
:400100000600008004010B400C02024008010B4016000080000002400C020B4010B5064C2378002B07D1054B002B02D0044800E000BF0123237010BDF00000200000000093
:40014000480E000008B5084B002B03D00748084900E000BF07480368002B00D108BD064B002BFBD09847F9E700000000480E0000F4000020D00000200000000008B562B62C
:40018000012000F093FB00F05DFBFEE7FEE7000070B51049104B01394A1C15D000221E685C689D68A018AA4203D0B058A0500432F8E7021CDC68151AA54202D0002520C2EA
:4001C000F9E710330139E7E700F002FEFFF7D6FFFEE7C04601000000A80E000008B500239A000D49032B01D80C4989580C4801338150302BF4D1FFF711FF0022094B1A60FB
:40020000094B1A68002A00D11A6080220121D20513680B43136008BD8D0100000000000000000020C8000020C0000020004770B5051C0E1C141C002802D0002000F002FC72
:400240000020002C05D0013CAB191B5DC018C0B2F7E770BDF0B57F23051C9D432E1C2B1CA3B00191C40980361A789446614602AA571BF9540133B342F6D17F2318406B4635
:400280001B79111C1354A0B200F01CFB23B0F0BD013808B50B282FD8C901494200F084FD06080A0C0E10141216191B20174B13E0174B16E0174B0AE0174B12E0174B0BE0DB
:4002C000174B09E0174B02E0174B00E0174BC91816E0174B05E0174BC9180878C0B213E0154BC9180A7848788B7800021B041843CB7810431B0606E0002000F0A3FB002117
:400300000B7848780002184308BDC046C07F0000C17F0000C57F0000C97F0000D07F0000D17F0000D67F0000D27F0000D47F0000D87F0000DC7F0000E07F00000C4B10B582
:400340001A68102313400B4A00D113601368802B0DD100240220211C1460FFF799FFA04205D0211C0220FFF793FFFFF75FFF10BD00030B40C0000020F8B5041C0320211C39
:40038000FFF786FF211C061C0420FFF781FF211C071C0620FFF77CFF0025012828D00320211CFFF775FF0136F601F7192E1C0130C001B84209D203785A1ED2B2FD2A00D8FD
:4003C00001265D19EDB20130F3E70120211CFFF75FFF6D42EBB20625834209D1002E07D0044BE4016042C0180121FFF733FF0025281CF8BDD17F0000F0B5C44CA544029053
:4004000000F0E2FB62B600250A23019504950393029AFF23002A00D0131C96212AAF07AC381C4900221C00F0D3FB029B002B03D0039B013BDBB20393039B002B02D00028A2
:40044000E6D102E0002800D08CE02188062900D896E03A780423012A54D1FE78BA7836021643F21D8A4200D98CE0962149008A4200D987E0BF19B87979793A79172841D1CC
:400480000020F3189BB2002B09D0C0ACA04FE418E4192478013B001980B29BB2F3E74042090280B20A43083382422BD16CE0342B00D00AE1019B012B62D1032E60D175A83B
:4004C0000021802200F0B3FC8025972175AB581906ABAD19F21EC918ADB200F09FFC832D00D06DE1962206AB9B181D78013A06AB9B1818782D020543FF2D00D865E10123C7
:4005000001930A23002406AAD48001212AAA5370230AD370002311709470221D92B2002A09D0C0A97A48891809180978013A5B189BB292B2F3E7C0AA764912195B4251189A
:400540009BB20B7074491B0A51180B70734B0734D2181723137006AB9A1DA1B22AA8962300F068FB029B002B00D151E7019B012B00D05DE1012301934AE7019B012B50D03C
:400580000423BFE70323BDE72AAF7B783C79181C313814282ED9624A1468002C26D0019A012A25D106AA56810AAE13722BAF00210C22301C099700F03AFCB76008A8311C2A
:4005C000A0472623B488FF339C4202D9B368BB4207D0B268002A01D1002C04D13368DBB291E70E238EE70E23141C8CE705238AE7052387E700F0E2FBC1FF4B00CFFF5BFF55
:400600007100CFFF760098005BFFA900D500CFFFCFFFCFFFCFFFCFFFCFFFCFFFCFFFCFFF1E00002EACD1301CFFF7A6FE434243413B71B3E0019B012BA2D1321C7F339A4348
:40064000032A9DD1BB7905937F79032E06D0972106ABF21E75A8C91800F0E0FB002C00D0AAE0059B1B021F430A23FF2F00D94AE7FF01391C3B1C803175AAD21B1878D25CA1
:40068000824200D09AE001338B42F5D13BE0019B012B00D074E7012E00D071E7002C00D06EE7204B1B681B68DA0BD2B2DB09DBB2002A01D080235B003B711B0A7B71FF238C
:4006C000BB7100230424FB711DE7019B012B00D056E7022E00D853E7F7E6019B012B00D04EE79FE0019B012B00D049E72C33AF19FF339F4200DD45E775AB58192BA9321C15
:4007000000F08CFBBDB200231C1CFCE6FCFCFFFFA7FDFFFFACFDFFFFADFDFFFFAEFDFFFF0C010020D4000020002E00D028E70AAB191C414A351C11CA11C12BAA03CB03C2FD
:40074000012308240193331CDDE6019B012B00D016E7032E00D013E7BE797B7936021E43FF2E00D9CDE621027118C90100208022FFF75DFD071C002C0DD1FF2E0BD1211C7B
:400780000520FFF785FD211C3F1A0620FFF780FDFFB23F1AFFB27F422AAB1F7100230124B1E60020FFF7E8FD002802D18022234B1A6000F049F9E3E60923A3E60223A1E6D1
:4007C000012300250193023325E01D4B1B681A68D3099BB2520601D001339BB224022D19ADB29D4219D3049B002B0AD1191C80220AA800F01CFBFF200AA900F063F8012396
:400800000493281C75A900F05DF8002805D10123051C0193031C2C1C75E60123002501930933F8E70025029BAB4200D1F0E5A1E6C1239B009D44F0BD4C0E0000C0000020C6
:40084000D400002038B50020FFF796FD431E98410625144C4042236805401A680020C03AC021FFF7E4FC63681B78181AC0B2984203D123681B68002B02D1002000F0E2F8DE
:40088000094C2368402B01D0002D03D000202060FFF7B2FD1420FFF7AFFD8023236000F0D3F838BDD4000020C00000202023044940010A689A43D2B2034013430B607047F8
:4008C00000030440F0B50024ADB008940994FF2800D995E0A14200D192E0049080220CA800F09CFA0222231C211C01940AAD90004059002802D00918034301920132222ABF
:40090000F4D1002901D1002B7DD1002702977F234249434C0A91434E6B60434B2560336022680793120F069100230A2A02D022680F3313400893089B0393002B6AD100F017
:4009400091F93A4A3A4B116805901960039B03920993089B002B12D1364A04990A920A9A09040A430A92344A256032602268120F0A2A03D02A4B1A680F2313400893089D87
:40098000002D31D1002F2FD080220CA8291C00F04EFA019B029A0AAF9B00DA51069B0A937F237B60079B2760336023681B0F0A2B03D01B4B1D680F231D400895089B002B37
:4009C00012D11E4A04990A920A9A080410431C4A0A90276032602268120F0A2A03D0104B1A680F2313400893099B002B04D1104A039912680A600993059800F037F909E0E8
:400A00000423089306E0019B01279B00EA58E95002927CE708982DB0F0BDC046B6D7000008000040040000400400008008010B4010010020B6D8000005000080B6D9000049
:400A40000600008001BE7047034A044913689BB20B4313607047C0460CED00E00400FA0510B5041C8022074B1202944205D9186800F0EEF8044BE418F4E75868604300F04E
:400A8000E7F810BDDC0000200080FFFF08B5034B1B7A584300F0DCF808BDC046DC000020F0B5051C87B000F0DDF8EB1E049003932D2B5CD8314B1B789D4204D8304B1C78F0
:400AC000304BE4B21EE0304B1B789D4204D82F4B1C782F4BE4B215E02E4B1B789D4204D82D4B1C782D4BE4B20CE02D4B1B789D4204D82C4B1C782C4BE4B203E02B4B1C7873
:400B00002B4BE4B21B78039ADBB20193294B2A4F9A5C059302922F2A04D92A2D02D919263E6008E03F233E681E40029BB34205D2214B029A1A60052000F08AF81C4B1F4A64
:400B4000ED182B780520DBB213601D4B019A1C601C4B1A60FFF79AFF029BB34208D9059B039A05209B5C3B6000F072F800E001BE049800F07BF807B0F0BDC046C0F1FF0F31
:400B8000C1F1FF0FC2F1FF0FC3F1FF0FC4F1FF0FC5F1FF0FC6F1FF0FC7F1FF0FC8F1FF0FC9F1FF0FCAF1FF0FCBF1FF0FCCF1FF0FCDF1FF0F540E00002CFF0B4028FF0B40DD
:400BC0001CFF0B4020FF0B4008B500F061F808BDF8B5012700282BD0002929D0161C0D1C041C09375F4300F067F8002810D000F063F8071CAD20FFF749FF00F05DF8874205
:400C0000F5D13B1EAB4200D92B1C3380002707E00120013FFFF724FF002FE4D13B1C1037E518AC4204D000F041F820700134F8E7381CF8BD38B50C1C151C0123002805D0CF
:400C4000002903D000F04EF800232C80181C38BD0230800804D0C0460138FDD1C046C046C0467047EFF3108072B6704780F310887047C046C046C0468021044A08B513689A
:400C800009060B43136000F081F808BD0000074010B5054C2378002B03D100F02FF801232370FFF7E9FF10BD14010020014B18687047C04640030740024B18680F23184027
:400CC0007047C04608030740044B1A680F231340082BF9D0024B18607047C046080207404002074038B5041C4518AC4204D02078FFF7EAFF0134F8E738BD0000124A134BD1
:400D000010B51A60002301210724114A11481360114A1160114A026011480460114803601148016011490A60114A1360114A1360114A1360114A1360114A1360114A136089
:400D4000114A136010BDC0460B00000200000740400007400003074048000740070000800403074010030740440007400002074004020740880E0740C80E0740480F074036
:400D8000080F0740C80F0740880F0740044A054B11680B40902109040B4313607047C04600000140FFFF0FFF02B4714649084900095C49008E4402BC7047C04603B471467E
:400DC000490840004900095E49008E4403BC70470E4B70B500251E1C0D4CE41AA410A54204D0AB00F35898470135F8E700F04AF8084B00251E1C084CE41AA410A54204D0EF
:400E0000AB00F35898470135F8E770BD900E0000900E0000900E0000980E0000002310B5934203D0CC5CC4540133F9E710BD031C8218934202D019700133FAE770470000B5
:400E4000000F000004000000000000009311B60411280101030405060708090A0B0C0E0F101112131415161718191B1C1D1E1F2021222325262728292A2B2E2F303132333F
:400E800034350000F8B5C046F8BC08BC9E46704745010000DD010000F8B5C046F8BC08BC9E4670471D010000B80E0000D0000020200000002800000000000000400E0000AF
:400EC000440E00000000401F803E0000100000000024F40000000000000000000000000000000000000000000000000000000000000000000000000000000000000000005B
:400F000000000000000000000000000000000000000000000000000000000000000000000000000000000000000000000000000000000000000000000000000000000000B1
:400F40000000000000000000000000000000000000000000000000000000000000000000000000000000000000000000000000000000000000000000000000000000000071
:400F80000000000000000000000000000000000000000000000000000000000000000000000000000000000000000000000000000000000000000000000000000000000031
:400FC00000000000000000000000000000000000000000000000000000000000000000000000000000000000000000000000000000000000000000000000000000000000F1
:407FC0000000000000000000000000000000000000000000010000000000000000000000000000000000000000000000000000000000000000000000000000000000000080
:0200000490303A
:0200000007D621
:0200000490402A
:200000000000000000000000000000000000000000000000000000000000000000000000E0
:0200000490501A
:0C000000000204B61193110104BB196941
:0200000490600A
:0100000001FE
:00000001FF